{"contracts/AuctionHouse.sol":{"AuctionHouse":{"abi":[{"inputs":[{"internalType":"uint256","name":"_platformFeeBps","type":"uint256"},{"internalType":"uint256","name":"_minArbitratorStake","type":"uint256"}],"stateMutability":"nonpayable","type":"constructor"},{"anonymous":false,"inputs":[{"indexed":true,"internalType":"address","name":"arbitrator","type":"address"},{"indexed":false,"internalType":"string","name":"name","type":"string"}],"name":"ArbitratorRegistered","type":"event"},{"anonymous":false,"inputs":[{"indexed":true,"internalType":"uint256","name":"id","type":"uint256"},{"indexed":true,"internalType":"address","name":"seller","type":"address"},{"indexed":false,"internalType":"string","name":"title","type":"string"},{"indexed":false,"internalType":"uint256","name":"startPrice","type":"uint256"},{"indexed":false,"internalType":"uint256","name":"endTime","type":"uint256"}],"name":"AuctionCreated","type":"event"},{"anonymous":false,"inputs":[{"indexed":true,"internalType":"uint256","name":"id","type":"uint256"},{"indexed":true,"internalType":"address","name":"winner","type":"address"},{"indexed":false,"internalType":"uint256","name":"finalPrice","type":"uint256"}],"name":"AuctionEnded","type":"event"},{"anonymous":false,"inputs":[{"indexed":true,"internalType":"uint256","name":"auctionId","type":"uint256"},{"indexed":true,"internalType":"address","name":"bidder","type":"address"},{"indexed":false,"internalType":"uint256","name":"amount","type":"uint256"}],"name":"BidPlaced","type":"event"},{"anonymous":false,"inputs":[{"indexed":true,"internalType":"uint256","name":"disputeId","type":"uint256"},{"indexed":true,"internalType":"uint256","name":"auctionId","type":"uint256"},{"indexed":true,"internalType":"address","name":"openedBy","type":"address"}],"name":"DisputeOpened","type":"event"},{"anonymous":false,"inputs":[{"indexed":true,"internalType":"uint256","name":"disputeId","type":"uint256"},{"indexed":false,"internalType":"uint8","name":"ruling","type":"uint8"}],"name":"DisputeResolved","type":"event"},{"anonymous":false,"inputs":[{"indexed":true,"internalType":"uint256","name":"auctionId","type":"uint256"},{"indexed":true,"internalType":"address","name":"recipient","type":"address"},{"indexed":false,"internalType":"uint256","name":"amount","type":"uint256"}],"name":"FundsReleased","type":"event"},{"inputs":[{"internalType":"uint256","name":"","type":"uint256"}],"name":"arbitratorAddresses","outputs":[{"internalType":"address","name":"","type":"address"}],"stateMutability":"view","type":"function"},{"inputs":[{"internalType":"address","name":"","type":"address"}],"name":"arbitrators","outputs":[{"internalType":"address","name":"addr","type":"address"},{"internalType":"string","name":"name","type":"string"},{"internalType":"uint256","name":"feeBps","type":"uint256"},{"internalType":"uint256","name":"casesHandled","type":"uint256"},{"internalType":"uint256","name":"reputationScore","type":"uint256"},{"internalType":"bool","name":"active","type":"bool"},{"internalType":"uint256","name":"stakedAmount","type":"uint256"}],"stateMutability":"view","type":"function"},{"inputs":[{"internalType":"uint256","name":"","type":"uint256"}],"name":"auctions","outputs":[{"internalType":"uint256","name":"id","type":"uint256"},{"internalType":"address","name":"seller","type":"address"},{"internalType":"string","name":"title","type":"string"},{"internalType":"string","name":"description","type":"string"},{"internalType":"string","name":"ipfsHash","type":"string"},{"internalType":"uint256","name":"startPrice","type":"uint256"},{"internalType":"uint256","name":"bidStep","type":"uint256"},{"internalType":"uint256","name":"currentPrice","type":"uint256"},{"internalType":"uint256","name":"startTime","type":"uint256"},{"internalType":"uint256","name":"endTime","type":"uint256"},{"internalType":"address","name":"highestBidder","type":"address"},{"internalType":"uint256","name":"highestBid","type":"uint256"},{"internalType":"uint8","name":"status","type":"uint8"},{"internalType":"address","name":"arbitrator","type":"address"},{"internalType":"uint256","name":"disputeId","type":"uint256"},{"internalType":"bool","name":"fundsReleased","type":"bool"}],"stateMutability":"view","type":"function"},{"inputs":[{"internalType":"address","name":"","type":"address"},{"internalType":"uint256","name":"","type":"uint256"}],"name":"bidderAuctions","outputs":[{"internalType":"uint256","name":"","type":"uint256"}],"stateMutability":"view","type":"function"},{"inputs":[{"internalType":"uint256","name":"","type":"uint256"},{"internalType":"uint256","name":"","type":"uint256"}],"name":"bids","outputs":[{"internalType":"address","name":"bidder","type":"address"},{"internalType":"uint256","name":"amount","type":"uint256"},{"internalType":"uint256","name":"timestamp","type":"uint256"}],"stateMutability":"view","type":"function"},{"inputs":[{"internalType":"uint256","name":"_auctionId","type":"uint256"}],"name":"confirmReceipt","outputs":[],"stateMutability":"nonpayable","type":"function"},{"inputs":[{"internalType":"string","name":"_title","type":"string"},{"internalType":"string","name":"_description","type":"string"},{"internalType":"string","name":"_ipfsHash","type":"string"},{"internalType":"uint256","name":"_startPrice","type":"uint256"},{"internalType":"uint256","name":"_bidStep","type":"uint256"},{"internalType":"uint256","name":"_startTime","type":"uint256"},{"internalType":"uint256","name":"_endTime","type":"uint256"},{"internalType":"address","name":"_arbitrator","type":"address"}],"name":"createAuction","outputs":[{"internalType":"uint256","name":"auctionId","type":"uint256"}],"stateMutability":"nonpayable","type":"function"},{"inputs":[],"name":"deregisterArbitrator","outputs":[],"stateMutability":"nonpayable","type":"function"},{"inputs":[{"internalType":"uint256","name":"","type":"uint256"}],"name":"disputes","outputs":[{"internalType":"uint256","name":"id","type":"uint256"},{"internalType":"uint256","name":"auctionId","type":"uint256"},{"internalType":"address","name":"openedBy","type":"address"},{"internalType":"string","name":"reason","type":"string"},{"internalType":"uint256","name":"openedAt","type":"uint256"},{"internalType":"uint8","name":"status","type":"uint8"},{"internalType":"uint8","name":"ruling","type":"uint8"},{"internalType":"string","name":"resolution","type":"string"},{"internalType":"address","name":"arbitrator","type":"address"}],"stateMutability":"view","type":"function"},{"inputs":[{"internalType":"uint256","name":"_auctionId","type":"uint256"}],"name":"endAuction","outputs":[],"stateMutability":"nonpayable","type":"function"},{"inputs":[{"internalType":"address","name":"_addr","type":"address"}],"name":"getArbitrator","outputs":[{"components":[{"internalType":"address","name":"addr","type":"address"},{"internalType":"string","name":"name","type":"string"},{"internalType":"uint256","name":"feeBps","type":"uint256"},{"internalType":"uint256","name":"casesHandled","type":"uint256"},{"internalType":"uint256","name":"reputationScore","type":"uint256"},{"internalType":"bool","name":"active","type":"bool"},{"internalType":"uint256","name":"stakedAmount","type":"uint256"}],"internalType":"struct AuctionHouse.ArbitratorInfo","name":"","type":"tuple"}],"stateMutability":"view","type":"function"},{"inputs":[],"name":"getArbitratorCount","outputs":[{"internalType":"uint256","name":"","type":"uint256"}],"stateMutability":"view","type":"function"},{"inputs":[],"name":"getArbitratorList","outputs":[{"internalType":"address[]","name":"","type":"address[]"}],"stateMutability":"view","type":"function"},{"inputs":[{"internalType":"uint256","name":"_id","type":"uint256"}],"name":"getAuction","outputs":[{"components":[{"internalType":"uint256","name":"id","type":"uint256"},{"internalType":"address","name":"seller","type":"address"},{"internalType":"string","name":"title","type":"string"},{"internalType":"string","name":"description","type":"string"},{"internalType":"string","name":"ipfsHash","type":"string"},{"internalType":"uint256","name":"startPrice","type":"uint256"},{"internalType":"uint256","name":"bidStep","type":"uint256"},{"internalType":"uint256","name":"currentPrice","type":"uint256"},{"internalType":"uint256","name":"startTime","type":"uint256"},{"internalType":"uint256","name":"endTime","type":"uint256"},{"internalType":"address","name":"highestBidder","type":"address"},{"internalType":"uint256","name":"highestBid","type":"uint256"},{"internalType":"uint8","name":"status","type":"uint8"},{"internalType":"address","name":"arbitrator","type":"address"},{"internalType":"uint256","name":"disputeId","type":"uint256"},{"internalType":"bool","name":"fundsReleased","type":"bool"}],"internalType":"struct AuctionHouse.Auction","name":"","type":"tuple"}],"stateMutability":"view","type":"function"},{"inputs":[],"name":"getAuctionCount","outputs":[{"internalType":"uint256","name":"","type":"uint256"}],"stateMutability":"view","type":"function"},{"inputs":[{"internalType":"uint256","name":"_offset","type":"uint256"},{"internalType":"uint256","name":"_limit","type":"uint256"}],"name":"getAuctions","outputs":[{"components":[{"internalType":"uint256","name":"id","type":"uint256"},{"internalType":"address","name":"seller","type":"address"},{"internalType":"string","name":"title","type":"string"},{"internalType":"string","name":"description","type":"string"},{"internalType":"string","name":"ipfsHash","type":"string"},{"internalType":"uint256","name":"startPrice","type":"uint256"},{"internalType":"uint256","name":"bidStep","type":"uint256"},{"internalType":"uint256","name":"currentPrice","type":"uint256"},{"internalType":"uint256","name":"startTime","type":"uint256"},{"internalType":"uint256","name":"endTime","type":"uint256"},{"internalType":"address","name":"highestBidder","type":"address"},{"internalType":"uint256","name":"highestBid","type":"uint256"},{"internalType":"uint8","name":"status","type":"uint8"},{"internalType":"address","name":"arbitrator","type":"address"},{"internalType":"uint256","name":"disputeId","type":"uint256"},{"internalType":"bool","name":"fundsReleased","type":"bool"}],"internalType":"struct AuctionHouse.Auction[]","name":"result","type":"tuple[]"}],"stateMutability":"view","type":"function"},{"inputs":[{"internalType":"address","name":"_bidder","type":"address"}],"name":"getBidderAuctions","outputs":[{"internalType":"uint256[]","name":"","type":"uint256[]"}],"stateMutability":"view","type":"function"},{"inputs":[{"internalType":"uint256","name":"_auctionId","type":"uint256"}],"name":"getBids","outputs":[{"components":[{"internalType":"address","name":"bidder","type":"address"},{"internalType":"uint256","name":"amount","type":"uint256"},{"internalType":"uint256","name":"timestamp","type":"uint256"}],"internalType":"struct AuctionHouse.Bid[]","name":"","type":"tuple[]"}],"stateMutability":"view","type":"function"},{"inputs":[{"internalType":"uint256","name":"_id","type":"uint256"}],"name":"getDispute","outputs":[{"components":[{"internalType":"uint256","name":"id","type":"uint256"},{"internalType":"uint256","name":"auctionId","type":"uint256"},{"internalType":"address","name":"openedBy","type":"address"},{"internalType":"string","name":"reason","type":"string"},{"internalType":"uint256","name":"openedAt","type":"uint256"},{"internalType":"uint8","name":"status","type":"uint8"},{"internalType":"uint8","name":"ruling","type":"uint8"},{"internalType":"string","name":"resolution","type":"string"},{"internalType":"address","name":"arbitrator","type":"address"}],"internalType":"struct AuctionHouse.Dispute","name":"","type":"tuple"}],"stateMutability":"view","type":"function"},{"inputs":[],"name":"getDisputeCount","outputs":[{"internalType":"uint256","name":"","type":"uint256"}],"stateMutability":"view","type":"function"},{"inputs":[{"internalType":"uint256","name":"_auctionId","type":"uint256"},{"internalType":"address","name":"_bidder","type":"address"}],"name":"getPendingReturn","outputs":[{"internalType":"uint256","name":"","type":"uint256"}],"stateMutability":"view","type":"function"},{"inputs":[{"internalType":"address","name":"_seller","type":"address"}],"name":"getSellerAuctions","outputs":[{"internalType":"uint256[]","name":"","type":"uint256[]"}],"stateMutability":"view","type":"function"},{"inputs":[],"name":"minArbitratorStake","outputs":[{"internalType":"uint256","name":"","type":"uint256"}],"stateMutability":"view","type":"function"},{"inputs":[{"internalType":"uint256","name":"_auctionId","type":"uint256"},{"internalType":"string","name":"_reason","type":"string"}],"name":"openDispute","outputs":[{"internalType":"uint256","name":"disputeId","type":"uint256"}],"stateMutability":"nonpayable","type":"function"},{"inputs":[],"name":"owner","outputs":[{"internalType":"address","name":"","type":"address"}],"stateMutability":"view","type":"function"},{"inputs":[{"internalType":"uint256","name":"","type":"uint256"},{"internalType":"address","name":"","type":"address"}],"name":"pendingReturns","outputs":[{"internalType":"uint256","name":"","type":"uint256"}],"stateMutability":"view","type":"function"},{"inputs":[{"internalType":"uint256","name":"_auctionId","type":"uint256"}],"name":"placeBid","outputs":[],"stateMutability":"payable","type":"function"},{"inputs":[],"name":"platformFeeBps","outputs":[{"internalType":"uint256","name":"","type":"uint256"}],"stateMutability":"view","type":"function"},{"inputs":[{"internalType":"string","name":"_name","type":"string"},{"internalType":"uint256","name":"_feeBps","type":"uint256"}],"name":"registerArbitrator","outputs":[],"stateMutability":"payable","type":"function"},{"inputs":[{"internalType":"uint256","name":"_disputeId","type":"uint256"},{"internalType":"uint8","name":"_ruling","type":"uint8"},{"internalType":"string","name":"_resolution","type":"string"}],"name":"resolveDispute","outputs":[],"stateMutability":"nonpayable","type":"function"},{"inputs":[{"internalType":"address","name":"","type":"address"},{"internalType":"uint256","name":"","type":"uint256"}],"name":"sellerAuctions","outputs":[{"internalType":"uint256","name":"","type":"uint256"}],"stateMutability":"view","type":"function"},{"inputs":[{"internalType":"uint256","name":"_amount","type":"uint256"}],"name":"setMinArbitratorStake","outputs":[],"stateMutability":"nonpayable","type":"function"},{"inputs":[{"internalType":"uint256","name":"_bps","type":"uint256"}],"name":"setPlatformFee","outputs":[],"stateMutability":"nonpayable","type":"function"},{"inputs":[{"internalType":"uint256","name":"_auctionId","type":"uint256"}],"name":"withdrawRefund","outputs":[],"stateMutability":"nonpayable","type":"function"},{"stateMutability":"payable","type":"receive"}],"evm":{"bytecode":{"linkReferences":{},"object":"60803461006b57601f61329a38819003918201601f19168301916001600160401b0383118484101761007057808492604094855283398101031261006b5760208151910151903360018060a01b03196008541617600855600955600a5560405161321390816100878239f35b600080fd5b634e487b7160e01b600052604160045260246000fdfe608080604052600436101561001d575b50361561001b57600080fd5b005b60003560e01c9081630595e309146127e0575080630899172c1461279e57806308f528941461277057806310987b771461275257806312e8e2c3146126ec578063131d9a27146126025780631923c96f146125e457806319dee18b1461251c5780631cb8dd1c146124c457806322dcd13e146124a657806336f691c414611fc4578063388b0c0214611eac5780635036b0bc14611e5357806351d0ea3714611db7578063564a565d14611cee578063571a26a014611bad57806362910b5914611b3557806369ce5d8714611ab157806378bd793514611a5b5780637b3c4baa14611a0157806382c7316e146119e3578063843cba13146118295780638c735939146111235780638da5cb5b146110fa5780638ddac1ef146103245780639979ef4514610df25780639d15349514610d5e578063b9a2de3a14610bf0578063bbb54d89146108af578063c316939c14610402578063c44e6640146103e4578063ceb6a22f1461036c578063d02ef6f9146103245763e3a96cbd146101a0573861000f565b3461031f57602036600319011261031f576040516004356101c0826129bd565b6000808352602083018190526040830181905260608084018190526080840182905260a0840182905260c0840182905260e08401526101009283015260015461020a908210612e7c565b61021390612ad7565b509060405190610222826129bd565b8254825260018301546020830190815260028401546001600160a01b03908116604085019081529194919261025960038401612a31565b926060860193845260048101549060808701918252600581015460a088019560ff8216875260c089019160081c60ff16825285806006850161029a90612a31565b9460e08c01958652600701541698868b01998a526040519b8c9b60208d525160208d01525160408c0152511660608a01525195610120968760808b01526101408a016102e591612928565b935160a08a01525160ff1660c08901525160ff1660e08801525191601f19878303019087015261031491612928565b925116908301520390f35b600080fd5b3461031f57604036600319011261031f5761033d6128e5565b600435600052600560205260406000209060018060a01b03166000526020526020604060002054604051908152f35b3461031f5761038361037d36612c78565b90613038565b60405160209182820192808352815180945260408301938160408260051b8601019301916000955b8287106103b85785850386f35b9091929382806103d4600193603f198a82030186528851612b9a565b96019201960195929190926103ab565b3461031f57600036600319011261031f576020600054604051908152f35b3461031f57606036600319011261031f5760243560ff8116810361031f576001600160401b039060443582811161031f576104419036906004016128fb565b61045360019492945460043510612e7c565b61045e600435612ad7565b509061046d6001830154612b11565b509260058301805460ff811680159081156108a4575b501561086c5760078501546001600160a01b031633148015610858575b1561082257600160ff8816101580610814575b156107de5761ffff1916600887901b61ff001617600217905581116107c8576104ec816104e36006850154612968565b60068501612cfc565b6000601f8211600114610755578190600e959660009261074a575b50508160011b916000199060031b1c19161760068201555b600c8201805460ff19166005179055600b8201549060ff85166001036105b557600101546000526005602052604060002060018060a01b03600a840154166000526020526105736040600020918254612de6565b905501805460ff191660011790555b60ff604051911681527f2ffcfee146bc0d5ff304c6b65111a0d485af9456dc64eee7d66ebdcc90b223ea602060043592a2005b9060ff85166002036106e657612710610633610620826105d760095486612e5c565b600787015491900494859490916001600160a01b03169081156106d75761061b91600052600660205261061260026040600020015484612e5c565b04958692612e6f565b612e6f565b60018601546001600160a01b031661315d565b806106bb575b50801515806106a5575b61065b575b505001805460ff19166001179055610582565b600782015461067391906001600160a01b031661315d565b600701546001600160a01b03166000908152600660205260409020600301805461069c90612df3565b90558380610648565b5060078201546001600160a01b03161515610643565b6008546106d191906001600160a01b031661315d565b85610639565b505061061b6000958692612e6f565b61070481600192831c9061061b82858060a01b03868901541661315d565b9101546000526005602052604060002060018060a01b03600a840154166000526020526107376040600020918254612de6565b905501805460ff19166001179055610582565b013590508680610507565b6006830160005260206000209060005b601f19841681106107b0575090600e95968392600194601f19811610610796575b505050811b01600682015561051f565b0135600019600384901b60f8161c19169055868080610786565b9091602060018192858b013581550193019101610765565b634e487b7160e01b600052604160045260246000fd5b60405162461bcd60e51b815260206004820152600e60248201526d496e76616c69642072756c696e6760901b6044820152606490fd5b50600360ff881611156104b3565b60405162461bcd60e51b815260206004820152600e60248201526d2737ba1030b93134ba3930ba37b960911b6044820152606490fd5b506008546001600160a01b031633146104a0565b60405162461bcd60e51b815260206004820152601060248201526f2234b9b83aba32903737ba1037b832b760811b6044820152606490fd5b600191501489610483565b604036600319011261031f576001600160401b0360043581811161031f576108db9036906004016128fb565b9160243590600a543410610bb65733600052600660205260ff60056040600020015416610b7c576101f48211610b4a578315610b15576040519061091e826129d9565b33825261092c368686612cc5565b926020830193845260408301908152606083016000815260808401916032835260a0850193600185523460c087015233600052600660205260406000209660018060a01b038751166001600160601b0360a01b8954161788555180519182116107c8576109a9826109a060018b0154612968565b60018b01612cfc565b602090601f8311600114610a995792826006989693610a11969360c09996600092610a8e575b50508160011b916000199060031b1c19161760018a01555b516002890155516003880155516004870155511515600586019060ff801983541691151516179055565b0151910155600754600160401b8110156107c8577f750f2390fa9547f1fe4068f3b2cb76e48a0d32f60c92c0e091b26189954101d691610a5a826001610a89940160075561286a565b81549060031b9033821b9160018060a01b03901b19161790556040519182916020835233956020840191612d85565b0390a2005b015190508d806109cf565b906001890160005260206000209160005b601f1985168110610afd575083610a11969360c099969360019360069c9a97601f19811610610ae4575b505050811b0160018a01556109e7565b015160001960f88460031b161c191690558d8080610ad4565b91926020600181928685015181550194019201610aaa565b60405162461bcd60e51b815260206004820152600d60248201526c13985b59481c995c5d5a5c9959609a1b6044820152606490fd5b60405162461bcd60e51b815260206004820152600a602482015269466565206d617820352560b01b6044820152606490fd5b60405162461bcd60e51b8152602060048201526012602482015271105b1c9958591e481c9959da5cdd195c995960721b6044820152606490fd5b60405162461bcd60e51b8152602060048201526012602482015271496e73756666696369656e74207374616b6560701b6044820152606490fd5b3461031f57602036600319011261031f57600435610c116000548210612da6565b610c1a81612b11565b50600c810191825491600160ff841603610d2c5760098101544210610cf45760018101546001600160a01b0390811633148015610ce7575b15610cb157600a820154169283610c73575050825460ff1916600617909255005b6020917fd2aa34a4fdbbc6dff6a3e56f46e0f3ae2a31d7785ff3487aa5c95c642acea5019394956002600b9360ff19161790550154604051908152a3005b60405162461bcd60e51b815260206004820152600e60248201526d139bdd08185d5d1a1bdc9a5e995960921b6044820152606490fd5b5080600854163314610c52565b60405162461bcd60e51b815260206004820152601060248201526f139bdd08199a5b9a5cda1959081e595d60821b6044820152606490fd5b60405162461bcd60e51b815260206004820152600a6024820152694e6f742061637469766560b01b6044820152606490fd5b3461031f5760208060031936011261031f5760043580600052600582526040600020336000528252604060002054908115610db7579161001b92600052600581526040600020903360005252600060408120553361315d565b60405162461bcd60e51b81526004810184905260136024820152724e6f7468696e6720746f20776974686472617760681b6044820152606490fd5b60208060031936011261031f57600435610e0f6000548210612da6565b610e1881612b11565b50600160ff600c83015416036110c057600881015442106110895760098101544210156110545760018101546001600160a01b0391908216331461101b573415610fe957600b81018054919082610fd65760058201545b3410610fa357600a8201928484541680610f77575b5050610e908533612e02565b15610f5c575b6001600160601b0360a01b9233848254161790553490556007349101558260005260028452604060002060405191610ecd836129a2565b3383528583019034825260408401924284528054600160401b8110156107c857610efc91600182018155612c8e565b959095610f4657600294511690855416178455516001840155519101557f0e54eff26401bf69b81b26f60bd85ef47f5d85275c1d268d84f68d6897431c47604051923484523393a3005b634e487b7160e01b600052600060045260246000fd5b3360005260048652610f72856040600020612d50565b610e96565b86600052600588526040600020906000528752610f9a6040600020918254612de6565b90558680610e84565b60405162461bcd60e51b815260048101879052600b60248201526a42696420746f6f206c6f7760a81b6044820152606490fd5b610fe4600683015484612de6565b610e6f565b60405162461bcd60e51b815260048101859052600a6024820152695a65726f2076616c756560b01b6044820152606490fd5b60405162461bcd60e51b815260048101859052601160248201527014d95b1b195c8818d85b9b9bdd08189a59607a1b6044820152606490fd5b60405162461bcd60e51b815260048101849052600d60248201526c105b1c9958591e48195b991959609a1b6044820152606490fd5b60405162461bcd60e51b815260048101849052600f60248201526e139bdd081cdd185c9d1959081e595d608a1b6044820152606490fd5b60405162461bcd60e51b815260048101849052601260248201527141756374696f6e206e6f742061637469766560701b6044820152606490fd5b3461031f57600036600319011261031f576008546040516001600160a01b039091168152602090f35b3461031f5761010036600319011261031f576004356001600160401b03811161031f576111549036906004016128fb565b906024356001600160401b03811161031f576111749036906004016128fb565b9290916044356001600160401b03811161031f576111969036906004016128fb565b9360e435916001600160a01b038316830361031f574260c43511156117f15760a43560c43511156117b9576064351561177e5760843515611746576001600160a01b038316158015611721575b156116e7576000549560a43542106116df576001925b604051986112068a6129f4565b888a523360208b015261121a368989612cc5565b60408b0152369061122a92612cc5565b6060890152369061123a92612cc5565b608087015260643560a087015260843560c087015260643560e087015260a43561010087015260c43561012087015261014086016000905261016086016000905260ff16610180860152600160a01b60019003166101a08501526101c08401600090526101e0840160009052600160401b8310156107c857600183016000556112c283612b11565b919091610f46578451825560208501516001830180546001600160a01b0319166001600160a01b0392909216919091179055604085015180516001600160401b0381116107c8578060028501926113238261131d8654612968565b86612cfc565b602090601f83116001146116795760009261166e575b50508160011b916000199060031b1c19161790555b60608501518051906001600160401b0382116107c8578190611380826113776003880154612968565b60038801612cfc565b602090601f83116001146115fc576000926115f1575b50508160011b916000199060031b1c19161760038301555b6080850151918251956001600160401b0387116107c8578686946113e46020996113db6004870154612968565b60048701612cfc565b8890601f8311600114611551576101e07f5db69880ecd741cb72927505845a9c757184babea65c98a27788100ff8fbd186969484611500956115289895600e95600092611546575b50508160011b916000199060031b1c19161760048501555b60a0810151600585015560c0810151600685015560e0810151600785015561010081015160088501556101208101516009850155600a840160018060a01b03610140830151166001600160601b0360a01b825416179055610160810151600b850155600c840160ff61018083015116815490610100600160a81b036101a085015160081b16916affffffffffffffffffffff60a81b16171790556101c0810151600d8501550151151591019060ff801983541691151516179055565b3360005260038752611516846040600020612d50565b60405194606086526060860191612d85565b926064358682015260c43560408201528033940390a3604051908152f35b015190508e8061142c565b9060048501600052896000209160005b601f19851681106115d757507f5db69880ecd741cb72927505845a9c757184babea65c98a27788100ff8fbd18696946001856115289895600e956101e09561150099601f198116106115be575b505050811b016004850155611444565b015160001960f88460031b161c191690558e80806115ae565b8183015184558a9850600190930192918b01918b01611561565b015190508780611396565b9250600385016000526020600020906000935b601f1984168510611653576001945083601f1981161061163a575b505050811b0160038301556113ae565b015160001960f88460031b161c1916905587808061162a565b8181015183556020948501946001909301929091019061160f565b015190508880611339565b6000858152602081209350601f198516905b8181106116c757509084600195949392106116ae575b505050811b01905561134e565b015160001960f88460031b161c191690558880806116a1565b9293602060018192878601518155019501930161168b565b6000926111f9565b60405162461bcd60e51b815260206004820152601260248201527124b73b30b634b21030b93134ba3930ba37b960711b6044820152606490fd5b506001600160a01b03831660009081526006602052604090206005015460ff166111e3565b60405162461bcd60e51b815260206004820152601060248201526f0496e76616c69642062696420737465760841b6044820152606490fd5b60405162461bcd60e51b8152602060048201526013602482015272496e76616c696420737461727420707269636560681b6044820152606490fd5b60405162461bcd60e51b815260206004820152601060248201526f115b99081899599bdc99481cdd185c9d60821b6044820152606490fd5b60405162461bcd60e51b815260206004820152601060248201526f115b99081d1a5b59481a5b881c185cdd60821b6044820152606490fd5b3461031f57602036600319011261031f5760043561184a6000548210612da6565b61185381612b11565b5090600260ff600c84015416036119a95760ff600e8301541661197157600a91909101546001600160a01b0391908216330361192c577f6e3c6096795c8298a218b2cfb8bde42726ff7c9a3d27b4d3ba41ab7f74feb5fb60206118b583612b11565b5093600b85015460016118d86127106118d060095485612e5c565b048093612e6f565b96600e810160ff199083828254161790556003600c8301918254161790550190611905878484541661315d565b80611918575b50541693604051908152a3005b61192690836008541661315d565b8661190b565b60405162461bcd60e51b815260206004820152601760248201527f4f6e6c792077696e6e65722063616e20636f6e6669726d0000000000000000006044820152606490fd5b60405162461bcd60e51b815260206004820152601060248201526f105b1c9958591e481c995b19585cd95960821b6044820152606490fd5b60405162461bcd60e51b81526020600482015260126024820152714e6f7420696e20456e64656420737461746560701b6044820152606490fd5b3461031f57600036600319011261031f576020600a54604051908152f35b3461031f57611a0f36612c78565b9060005260026020526040600020805482101561031f57606091611a3291612c8e565b5060018060a01b0381541690600260018201549101549060405192835260208301526040820152f35b3461031f57602036600319011261031f57611aad611a99611a93600435611a80612ebc565b50611a8e6000548210612da6565b612b11565b50612f34565b604051918291602083526020830190612b9a565b0390f35b3461031f5760208060031936011261031f576001600160a01b03611ad36128cf565b1660005260038152604060002090604051908181845491828152019360005281600020916000905b828210611b1e57611aad85611b1281890382612a10565b60405191829182612b5f565b835486529485019460019384019390910190611afb565b3461031f5760208060031936011261031f576001600160a01b03611b576128cf565b1660005260048152604060002090604051908181845491828152019360005281600020916000905b828210611b9657611aad85611b1281890382612a10565b835486529485019460019384019390910190611b7f565b3461031f57602036600319011261031f5760043560005481101561031f57611bd490612b11565b50805460018201546001600160a01b031691611bf260028201612a31565b611bfe60038301612a31565b91611c0b60048201612a31565b92600582015493600683015460078401546008850154600986015491600160a01b60019003600a8801541693600b88015495600c89015497600d8a015499600e015460ff169a6040519e8f9e8f908152602001528d6102009081604082015201611c7491612928565b8d810360608f0152611c8591612928565b8c810360808e0152611c9691612928565b60a08c019a909a5260c08b015260e08a015261010089015261012088015261014087015261016086015260ff811661018086015260081c6001600160a01b03166101a08501526101c084015215156101e08301520390f35b3461031f57602036600319011261031f5760043560015481101561031f57611d1590612ad7565b5080546001820154600283015490926001600160a01b0391821691611dac9160ff611d4260038301612a31565b92611d886004840154946005850154926007611d6060068801612a31565b96015416976040519a8b9a8b5260208b015260408a01526101208060608b0152890190612928565b93608088015281811660a088015260081c1660c086015284820360e0860152612928565b906101008301520390f35b3461031f57602036600319011261031f576001600160a01b0380611dd96128cf565b166000526006602052604060002090815416611df760018301612a31565b916002810154906003810154906004810154600660ff60058401541692015492611e33604051978897885260e0602089015260e0880190612928565b94604087015260608601526080850152151560a084015260c08301520390f35b3461031f57604036600319011261031f57611e6c6128cf565b6001600160a01b031660009081526003602052604090208054602435919082101561031f57602091611e9d916128b7565b90549060031b1c604051908152f35b3461031f5760208060031936011261031f57611ec66128cf565b90600060c0604051611ed7816129d9565b8281526060848201528260408201528260608201528260808201528260a0820152015260018060a01b0380921660005260068152604060002060405191611f1d836129d9565b838254168352611f2f60018301612a31565b9181840192835260028101549260408501938452600382015460608601908152611f9f60048401549260808801938452600660ff6005870154169560a08a01961515875201549560c08901968752604051998a99828b525116908901525160e06040890152610100880190612928565b945160608701525160808601525160a085015251151560c08401525160e08301520390f35b3461031f57604036600319011261031f576024356001600160401b03811161031f57611ff49036906004016128fb565b9061200460005460043510612da6565b61200f600435612b11565b5091600c83015460ff81166002811490811561249b575b501561245657600a8401546001600160a01b031633148015612440575b1561240d57600d8401546123cf57811561239857612083600154936040519361206b856129bd565b85855260043560208601523360408601523691612cc5565b6060830152426080830152600060a0830152600060c08301526040518060208101106001600160401b036020830111176107c857602081016040526000815260e083015260081c6001600160a01b0316610100820152600160401b8210156107c857600182016001556120f582612ad7565b610f465781518155602082015160018201556002810160018060a01b036040840151166001600160601b0360a01b825416179055606082015180516001600160401b0381116107c8578060038401926121528261131d8654612968565b602090601f831160011461233257600092612327575b50508160011b916000199060031b1c19161790555b608082015160048201556121bc6005820160ff60a08501511660ff1982541617815560ff60c08501511661ff0082549160081b169061ff001916179055565b60e082015180516001600160401b0381116107c85760068301916121ea826121e48554612968565b85612cfc565b602090601f83116001146122bb57600794939291600091836122b0575b50508160011b916000199060031b1c19161790555b61010090920151910180546001600160a01b0319166001600160a01b0392909216919091179055600c8201805460ff1916600417905560018101811161229a57602091600d600183019101556040519033600435827fc6fb55a2bd2838e444163cece1945a661c371c5ec8c1a4ea5d697aefc7690547600080a48152f35b634e487b7160e01b600052601160045260246000fd5b015190508880612207565b90601f198316918460005260206000209260005b81811061230f5750916001939185600798979694106122f6575b505050811b01905561221c565b015160001960f88460031b161c191690558880806122e9565b929360206001819287860151815501950193016122cf565b015190508780612168565b6000858152602081209350601f198516905b8181106123805750908460019594939210612367575b505050811b01905561217d565b015160001960f88460031b161c1916905587808061235a565b92936020600181928786015181550195019301612344565b60405162461bcd60e51b815260206004820152600f60248201526e1499585cdbdb881c995c5d5a5c9959608a1b6044820152606490fd5b60405162461bcd60e51b81526020600482015260166024820152754469737075746520616c72656164792065786973747360501b6044820152606490fd5b60405162461bcd60e51b815260206004820152600b60248201526a4e6f74206120706172747960a81b6044820152606490fd5b5060018401546001600160a01b03163314612043565b60405162461bcd60e51b815260206004820152601c60248201527f43616e6e6f74206469737075746520696e2074686973207374617465000000006044820152606490fd5b600191501485612026565b3461031f57600036600319011261031f576020600954604051908152f35b3461031f57604036600319011261031f576124dd6128cf565b6001600160a01b031660009081526004602052604090208054602435919082101561031f5760209161250e916128b7565b90546040519160031b1c8152f35b3461031f57600036600319011261031f57604051806007548083526020809301809160076000527fa66cc928b5edb82af9bd49922954155ab7b0942694bea4ce44661d9a8736c6889060005b868282106125c757868661257e82880383612a10565b604051928392818401908285525180915260408401929160005b8281106125a757505050500390f35b83516001600160a01b031685528695509381019392810192600101612598565b83546001600160a01b031685529093019260019283019201612568565b3461031f57600036600319011261031f576020600754604051908152f35b3461031f5760208060031936011261031f5760043560005260029081815260406000209182546126318161300d565b9161263f6040519384612a10565b81835260009485528385208484019591865b8484106126b057604080518881528751818a018190528a928201908a60005b82811061267d5784840385f35b855180516001600160a01b0316855280830151858401526040908101519085015294810194606090930192600101612670565b6003876001926040516126c2816129a2565b848060a01b0387541681528487015483820152858701546040820152815201930193019291612651565b3461031f57602036600319011261031f5760043561271560018060a01b03600854163314613125565b6103e8811161272357600955005b60405162461bcd60e51b81526020600482015260076024820152664d61782031302560c81b6044820152606490fd5b3461031f57600036600319011261031f576020600154604051908152f35b3461031f57602036600319011261031f5761279660018060a01b03600854163314613125565b600435600a55005b3461031f57602036600319011261031f5760043560075481101561031f576127c760209161286a565b905460405160039290921b1c6001600160a01b03168152f35b3461031f57600036600319011261031f5733600052600660205260ff60056040600020015416156128375733600052600660205261001b604060002060006006820160058154930160ff198154169055553361315d565b62461bcd60e51b815260206004820152600e60248201526d139bdd081c9959da5cdd195c995960921b6044820152606490fd5b6007548110156128a15760076000527fa66cc928b5edb82af9bd49922954155ab7b0942694bea4ce44661d9a8736c6880190600090565b634e487b7160e01b600052603260045260246000fd5b80548210156128a15760005260206000200190600090565b600435906001600160a01b038216820361031f57565b602435906001600160a01b038216820361031f57565b9181601f8401121561031f578235916001600160401b03831161031f576020838186019501011161031f57565b919082519283825260005b848110612954575050826000602080949584010152601f8019910116010190565b602081830181015184830182015201612933565b90600182811c92168015612998575b602083101461298257565b634e487b7160e01b600052602260045260246000fd5b91607f1691612977565b606081019081106001600160401b038211176107c857604052565b61012081019081106001600160401b038211176107c857604052565b60e081019081106001600160401b038211176107c857604052565b61020081019081106001600160401b038211176107c857604052565b90601f801991011681019081106001600160401b038211176107c857604052565b9060405191826000825492612a4584612968565b908184526001948581169081600014612ab45750600114612a71575b5050612a6f92500383612a10565b565b9093915060005260209081600020936000915b818310612a9c575050612a6f93508201013880612a61565b85548884018501529485019487945091830191612a84565b915050612a6f94506020925060ff191682840152151560051b8201013880612a61565b6001548110156128a157600160005260031b7fb10e2d527612073b26eecdfd717e6a320cf44b4afac2b0732d9fcbe2b7fa0cf60190600090565b906000918254811015612b4b57600f90838052027f290decd9548b62a8d60345a988386fc84ba6bc95484008f6362f93160ef3e563019190565b634e487b7160e01b83526032600452602483fd5b6020908160408183019282815285518094520193019160005b828110612b86575050505090565b835185529381019392810192600101612b78565b908151815260018060a01b0391826020820151166020830152612bf6612be4612bd26040840151610200806040880152860190612928565b60608401518582036060870152612928565b60808301518482036080860152612928565b9260a082015160a084015260c082015160c084015260e082015160e08401526101008083015190840152610120808301519084015261014081818401511690840152610160808301519084015261018060ff8184015116908401526101a0908183015116908301526101c080820151908301526101e080910151151591015290565b604090600319011261031f576004359060243590565b80548210156128a1576000526003602060002091020190600090565b6001600160401b0381116107c857601f01601f191660200190565b929192612cd182612caa565b91612cdf6040519384612a10565b82948184528183011161031f578281602093846000960137010152565b90601f8111612d0a57505050565b600091825260208220906020601f850160051c83019410612d46575b601f0160051c01915b828110612d3b57505050565b818155600101612d2f565b9092508290612d26565b8054600160401b8110156107c857612d6d916001820181556128b7565b819291549060031b91821b91600019901b1916179055565b908060209392818452848401376000828201840152601f01601f1916010190565b15612dad57565b60405162461bcd60e51b8152602060048201526011602482015270105d58dd1a5bdb881b9bdd08199bdd5b99607a1b6044820152606490fd5b9190820180921161229a57565b600019811461229a5760010190565b6001600160a01b03166000908152600460205260408120805492915b838110612e2e5750505050600090565b82612e3982846128b7565b90549060031b1c14612e5357612e4e90612df3565b612e1e565b50505050600190565b8181029291811591840414171561229a57565b9190820391821161229a57565b15612e8357565b60405162461bcd60e51b8152602060048201526011602482015270111a5cdc1d5d19481b9bdd08199bdd5b99607a1b6044820152606490fd5b60405190612ec9826129f4565b816101e060009182815282602082015260606040820152606080820152606060808201528260a08201528260c08201528260e08201528261010082015282610120820152826101408201528261016082015282610180820152826101a0820152826101c08201520152565b90604051612f41816129f4565b6101e060ff600e83958054855260018060a01b03806001830154166020870152612f6d60028301612a31565b6040870152612f7e60038301612a31565b6060870152612f8f60048301612a31565b6080870152600582015460a0870152600682015460c0870152600782015460e08701526008820154610100870152600982015461012087015280600a83015416610140870152600b820154610160870152600c82015484811661018088015260081c166101a0860152600d8101546101c08601520154161515910152565b6001600160401b0381116107c85760051b60200190565b80518210156128a15760209160051b010190565b91906000549081841080159061311d575b61311557816130588286612de6565b111561310557505b61306a8382612e6f565b926130748461300d565b936130826040519586612a10565b808552613091601f199161300d565b0160005b8181106130ee57505083815b8381106130ae5750505050565b806130e36130be6130e993612b11565b506130d26130cc8785612e6f565b91612f34565b6130dc8287613024565b5284613024565b50612df3565b6130a1565b6020906130f9612ebc565b82828901015201613095565b613110915083612de6565b613060565b506060925050565b508015613049565b1561312c57565b60405162461bcd60e51b81526020600482015260096024820152682737ba1037bbb732b960b91b6044820152606490fd5b6000918291829182916001600160a01b03165af13d156131d8573d61318181612caa565b9061318f6040519283612a10565b8152600060203d92013e5b156131a157565b60405162461bcd60e51b815260206004820152600f60248201526e151c985b9cd9995c8819985a5b1959608a1b6044820152606490fd5b61319a56fea2646970667358221220f2873570ddd68e52e0435a2e35d9ea91a06036af7e6d5315d930e688d8589a7964736f6c63430008140033","opcodes":"PUSH1 0x80 CALLVALUE PUSH2 0x6B JUMPI PUSH1 0x1F PUSH2 0x329A CODESIZE DUP2 SWAP1 SUB SWAP2 DUP3 ADD PUSH1 0x1F NOT AND DUP4 ADD SWAP2 PUSH1 0x1 PUSH1 0x1 PUSH1 0x40 SHL SUB DUP4 GT DUP5 DUP5 LT OR PUSH2 0x70 JUMPI DUP1 DUP5 SWAP3 PUSH1 0x40 SWAP5 DUP6 MSTORE DUP4 CODECOPY DUP2 ADD SUB SLT PUSH2 0x6B JUMPI PUSH1 0x20 DUP2 MLOAD SWAP2 ADD MLOAD SWAP1 CALLER PUSH1 0x1 DUP1 PUSH1 0xA0 SHL SUB NOT PUSH1 0x8 SLOAD AND OR PUSH1 0x8 SSTORE PUSH1 0x9 SSTORE PUSH1 0xA SSTORE PUSH1 0x40 MLOAD PUSH2 0x3213 SWAP1 DUP2 PUSH2 0x87 DUP3 CODECOPY RETURN JUMPDEST PUSH1 0x0 DUP1 REVERT JUMPDEST PUSH4 0x4E487B71 PUSH1 0xE0 SHL PUSH1 0x0 MSTORE PUSH1 0x41 PUSH1 0x4 MSTORE PUSH1 0x24 PUSH1 0x0 REVERT INVALID PUSH1 0x80 DUP1 PUSH1 0x40 MSTORE PUSH1 0x4 CALLDATASIZE LT ISZERO PUSH2 0x1D JUMPI JUMPDEST POP CALLDATASIZE ISZERO PUSH2 0x1B JUMPI PUSH1 0x0 DUP1 REVERT JUMPDEST STOP JUMPDEST PUSH1 0x0 CALLDATALOAD PUSH1 0xE0 SHR SWAP1 DUP2 PUSH4 0x595E309 EQ PUSH2 0x27E0 JUMPI POP DUP1 PUSH4 0x899172C EQ PUSH2 0x279E JUMPI DUP1 PUSH4 0x8F52894 EQ PUSH2 0x2770 JUMPI DUP1 PUSH4 0x10987B77 EQ PUSH2 0x2752 JUMPI DUP1 PUSH4 0x12E8E2C3 EQ PUSH2 0x26EC JUMPI DUP1 PUSH4 0x131D9A27 EQ PUSH2 0x2602 JUMPI DUP1 PUSH4 0x1923C96F EQ PUSH2 0x25E4 JUMPI DUP1 PUSH4 0x19DEE18B EQ PUSH2 0x251C JUMPI DUP1 PUSH4 0x1CB8DD1C EQ PUSH2 0x24C4 JUMPI DUP1 PUSH4 0x22DCD13E EQ PUSH2 0x24A6 JUMPI DUP1 PUSH4 0x36F691C4 EQ PUSH2 0x1FC4 JUMPI DUP1 PUSH4 0x388B0C02 EQ PUSH2 0x1EAC JUMPI DUP1 PUSH4 0x5036B0BC EQ PUSH2 0x1E53 JUMPI DUP1 PUSH4 0x51D0EA37 EQ PUSH2 0x1DB7 JUMPI DUP1 PUSH4 0x564A565D EQ PUSH2 0x1CEE JUMPI DUP1 PUSH4 0x571A26A0 EQ PUSH2 0x1BAD JUMPI DUP1 PUSH4 0x62910B59 EQ PUSH2 0x1B35 JUMPI DUP1 PUSH4 0x69CE5D87 EQ PUSH2 0x1AB1 JUMPI DUP1 PUSH4 0x78BD7935 EQ PUSH2 0x1A5B JUMPI DUP1 PUSH4 0x7B3C4BAA EQ PUSH2 0x1A01 JUMPI DUP1 PUSH4 0x82C7316E EQ PUSH2 0x19E3 JUMPI DUP1 PUSH4 0x843CBA13 EQ PUSH2 0x1829 JUMPI DUP1 PUSH4 0x8C735939 EQ PUSH2 0x1123 JUMPI DUP1 PUSH4 0x8DA5CB5B EQ PUSH2 0x10FA JUMPI DUP1 PUSH4 0x8DDAC1EF EQ PUSH2 0x324 JUMPI DUP1 PUSH4 0x9979EF45 EQ PUSH2 0xDF2 JUMPI DUP1 PUSH4 0x9D153495 EQ PUSH2 0xD5E JUMPI DUP1 PUSH4 0xB9A2DE3A EQ PUSH2 0xBF0 JUMPI DUP1 PUSH4 0xBBB54D89 EQ PUSH2 0x8AF JUMPI DUP1 PUSH4 0xC316939C EQ PUSH2 0x402 JUMPI DUP1 PUSH4 0xC44E6640 EQ PUSH2 0x3E4 JUMPI DUP1 PUSH4 0xCEB6A22F EQ PUSH2 0x36C JUMPI DUP1 PUSH4 0xD02EF6F9 EQ PUSH2 0x324 JUMPI PUSH4 0xE3A96CBD EQ PUSH2 0x1A0 JUMPI CODESIZE PUSH2 0xF JUMP JUMPDEST CALLVALUE PUSH2 0x31F JUMPI PUSH1 0x20 CALLDATASIZE PUSH1 0x3 NOT ADD SLT PUSH2 0x31F JUMPI PUSH1 0x40 MLOAD PUSH1 0x4 CALLDATALOAD PUSH2 0x1C0 DUP3 PUSH2 0x29BD JUMP JUMPDEST PUSH1 0x0 DUP1 DUP4 MSTORE PUSH1 0x20 DUP4 ADD DUP2 SWAP1 MSTORE PUSH1 0x40 DUP4 ADD DUP2 SWAP1 MSTORE PUSH1 0x60 DUP1 DUP5 ADD DUP2 SWAP1 MSTORE PUSH1 0x80 DUP5 ADD DUP3 SWAP1 MSTORE PUSH1 0xA0 DUP5 ADD DUP3 SWAP1 MSTORE PUSH1 0xC0 DUP5 ADD DUP3 SWAP1 MSTORE PUSH1 0xE0 DUP5 ADD MSTORE PUSH2 0x100 SWAP3 DUP4 ADD MSTORE PUSH1 0x1 SLOAD PUSH2 0x20A SWAP1 DUP3 LT PUSH2 0x2E7C JUMP JUMPDEST PUSH2 0x213 SWAP1 PUSH2 0x2AD7 JUMP JUMPDEST POP SWAP1 PUSH1 0x40 MLOAD SWAP1 PUSH2 0x222 DUP3 PUSH2 0x29BD JUMP JUMPDEST DUP3 SLOAD DUP3 MSTORE PUSH1 0x1 DUP4 ADD SLOAD PUSH1 0x20 DUP4 ADD SWAP1 DUP2 MSTORE PUSH1 0x2 DUP5 ADD SLOAD PUSH1 0x1 PUSH1 0x1 PUSH1 0xA0 SHL SUB SWAP1 DUP2 AND PUSH1 0x40 DUP6 ADD SWAP1 DUP2 MSTORE SWAP2 SWAP5 SWAP2 SWAP3 PUSH2 0x259 PUSH1 0x3 DUP5 ADD PUSH2 0x2A31 JUMP JUMPDEST SWAP3 PUSH1 0x60 DUP7 ADD SWAP4 DUP5 MSTORE PUSH1 0x4 DUP2 ADD SLOAD SWAP1 PUSH1 0x80 DUP8 ADD SWAP2 DUP3 MSTORE PUSH1 0x5 DUP2 ADD SLOAD PUSH1 0xA0 DUP9 ADD SWAP6 PUSH1 0xFF DUP3 AND DUP8 MSTORE PUSH1 0xC0 DUP10 ADD SWAP2 PUSH1 0x8 SHR PUSH1 0xFF AND DUP3 MSTORE DUP6 DUP1 PUSH1 0x6 DUP6 ADD PUSH2 0x29A SWAP1 PUSH2 0x2A31 JUMP JUMPDEST SWAP5 PUSH1 0xE0 DUP13 ADD SWAP6 DUP7 MSTORE PUSH1 0x7 ADD SLOAD AND SWAP9 DUP7 DUP12 ADD SWAP10 DUP11 MSTORE PUSH1 0x40 MLOAD SWAP12 DUP13 SWAP12 PUSH1 0x20 DUP14 MSTORE MLOAD PUSH1 0x20 DUP14 ADD MSTORE MLOAD PUSH1 0x40 DUP13 ADD MSTORE MLOAD AND PUSH1 0x60 DUP11 ADD MSTORE MLOAD SWAP6 PUSH2 0x120 SWAP7 DUP8 PUSH1 0x80 DUP12 ADD MSTORE PUSH2 0x140 DUP11 ADD PUSH2 0x2E5 SWAP2 PUSH2 0x2928 JUMP JUMPDEST SWAP4 MLOAD PUSH1 0xA0 DUP11 ADD MSTORE MLOAD PUSH1 0xFF AND PUSH1 0xC0 DUP10 ADD MSTORE MLOAD PUSH1 0xFF AND PUSH1 0xE0 DUP9 ADD MSTORE MLOAD SWAP2 PUSH1 0x1F NOT DUP8 DUP4 SUB ADD SWAP1 DUP8 ADD MSTORE PUSH2 0x314 SWAP2 PUSH2 0x2928 JUMP JUMPDEST SWAP3 MLOAD AND SWAP1 DUP4 ADD MSTORE SUB SWAP1 RETURN JUMPDEST PUSH1 0x0 DUP1 REVERT JUMPDEST CALLVALUE PUSH2 0x31F JUMPI PUSH1 0x40 CALLDATASIZE PUSH1 0x3 NOT ADD SLT PUSH2 0x31F JUMPI PUSH2 0x33D PUSH2 0x28E5 JUMP JUMPDEST PUSH1 0x4 CALLDATALOAD PUSH1 0x0 MSTORE PUSH1 0x5 PUSH1 0x20 MSTORE PUSH1 0x40 PUSH1 0x0 KECCAK256 SWAP1 PUSH1 0x1 DUP1 PUSH1 0xA0 SHL SUB AND PUSH1 0x0 MSTORE PUSH1 0x20 MSTORE PUSH1 0x20 PUSH1 0x40 PUSH1 0x0 KECCAK256 SLOAD PUSH1 0x40 MLOAD SWAP1 DUP2 MSTORE RETURN JUMPDEST CALLVALUE PUSH2 0x31F JUMPI PUSH2 0x383 PUSH2 0x37D CALLDATASIZE PUSH2 0x2C78 JUMP JUMPDEST SWAP1 PUSH2 0x3038 JUMP JUMPDEST PUSH1 0x40 MLOAD PUSH1 0x20 SWAP2 DUP3 DUP3 ADD SWAP3 DUP1 DUP4 MSTORE DUP2 MLOAD DUP1 SWAP5 MSTORE PUSH1 0x40 DUP4 ADD SWAP4 DUP2 PUSH1 0x40 DUP3 PUSH1 0x5 SHL DUP7 ADD ADD SWAP4 ADD SWAP2 PUSH1 0x0 SWAP6 JUMPDEST DUP3 DUP8 LT PUSH2 0x3B8 JUMPI DUP6 DUP6 SUB DUP7 RETURN JUMPDEST SWAP1 SWAP2 SWAP3 SWAP4 DUP3 DUP1 PUSH2 0x3D4 PUSH1 0x1 SWAP4 PUSH1 0x3F NOT DUP11 DUP3 SUB ADD DUP7 MSTORE DUP9 MLOAD PUSH2 0x2B9A JUMP JUMPDEST SWAP7 ADD SWAP3 ADD SWAP7 ADD SWAP6 SWAP3 SWAP2 SWAP1 SWAP3 PUSH2 0x3AB JUMP JUMPDEST CALLVALUE PUSH2 0x31F JUMPI PUSH1 0x0 CALLDATASIZE PUSH1 0x3 NOT ADD SLT PUSH2 0x31F JUMPI PUSH1 0x20 PUSH1 0x0 SLOAD PUSH1 0x40 MLOAD SWAP1 DUP2 MSTORE RETURN JUMPDEST CALLVALUE PUSH2 0x31F JUMPI PUSH1 0x60 CALLDATASIZE PUSH1 0x3 NOT ADD SLT PUSH2 0x31F JUMPI PUSH1 0x24 CALLDATALOAD PUSH1 0xFF DUP2 AND DUP2 SUB PUSH2 0x31F JUMPI PUSH1 0x1 PUSH1 0x1 PUSH1 0x40 SHL SUB SWAP1 PUSH1 0x44 CALLDATALOAD DUP3 DUP2 GT PUSH2 0x31F JUMPI PUSH2 0x441 SWAP1 CALLDATASIZE SWAP1 PUSH1 0x4 ADD PUSH2 0x28FB JUMP JUMPDEST PUSH2 0x453 PUSH1 0x1 SWAP5 SWAP3 SWAP5 SLOAD PUSH1 0x4 CALLDATALOAD LT PUSH2 0x2E7C JUMP JUMPDEST PUSH2 0x45E PUSH1 0x4 CALLDATALOAD PUSH2 0x2AD7 JUMP JUMPDEST POP SWAP1 PUSH2 0x46D PUSH1 0x1 DUP4 ADD SLOAD PUSH2 0x2B11 JUMP JUMPDEST POP SWAP3 PUSH1 0x5 DUP4 ADD DUP1 SLOAD PUSH1 0xFF DUP2 AND DUP1 ISZERO SWAP1 DUP2 ISZERO PUSH2 0x8A4 JUMPI JUMPDEST POP ISZERO PUSH2 0x86C JUMPI PUSH1 0x7 DUP6 ADD SLOAD PUSH1 0x1 PUSH1 0x1 PUSH1 0xA0 SHL SUB AND CALLER EQ DUP1 ISZERO PUSH2 0x858 JUMPI JUMPDEST ISZERO PUSH2 0x822 JUMPI PUSH1 0x1 PUSH1 0xFF DUP9 AND LT ISZERO DUP1 PUSH2 0x814 JUMPI JUMPDEST ISZERO PUSH2 0x7DE JUMPI PUSH2 0xFFFF NOT AND PUSH1 0x8 DUP8 SWAP1 SHL PUSH2 0xFF00 AND OR PUSH1 0x2 OR SWAP1 SSTORE DUP2 GT PUSH2 0x7C8 JUMPI PUSH2 0x4EC DUP2 PUSH2 0x4E3 PUSH1 0x6 DUP6 ADD SLOAD PUSH2 0x2968 JUMP JUMPDEST PUSH1 0x6 DUP6 ADD PUSH2 0x2CFC JUMP JUMPDEST PUSH1 0x0 PUSH1 0x1F DUP3 GT PUSH1 0x1 EQ PUSH2 0x755 JUMPI DUP2 SWAP1 PUSH1 0xE SWAP6 SWAP7 PUSH1 0x0 SWAP3 PUSH2 0x74A JUMPI JUMPDEST POP POP DUP2 PUSH1 0x1 SHL SWAP2 PUSH1 0x0 NOT SWAP1 PUSH1 0x3 SHL SHR NOT AND OR PUSH1 0x6 DUP3 ADD SSTORE JUMPDEST PUSH1 0xC DUP3 ADD DUP1 SLOAD PUSH1 0xFF NOT AND PUSH1 0x5 OR SWAP1 SSTORE PUSH1 0xB DUP3 ADD SLOAD SWAP1 PUSH1 0xFF DUP6 AND PUSH1 0x1 SUB PUSH2 0x5B5 JUMPI PUSH1 0x1 ADD SLOAD PUSH1 0x0 MSTORE PUSH1 0x5 PUSH1 0x20 MSTORE PUSH1 0x40 PUSH1 0x0 KECCAK256 PUSH1 0x1 DUP1 PUSH1 0xA0 SHL SUB PUSH1 0xA DUP5 ADD SLOAD AND PUSH1 0x0 MSTORE PUSH1 0x20 MSTORE PUSH2 0x573 PUSH1 0x40 PUSH1 0x0 KECCAK256 SWAP2 DUP3 SLOAD PUSH2 0x2DE6 JUMP JUMPDEST SWAP1 SSTORE ADD DUP1 SLOAD PUSH1 0xFF NOT AND PUSH1 0x1 OR SWAP1 SSTORE JUMPDEST PUSH1 0xFF PUSH1 0x40 MLOAD SWAP2 AND DUP2 MSTORE PUSH32 0x2FFCFEE146BC0D5FF304C6B65111A0D485AF9456DC64EEE7D66EBDCC90B223EA PUSH1 0x20 PUSH1 0x4 CALLDATALOAD SWAP3 LOG2 STOP JUMPDEST SWAP1 PUSH1 0xFF DUP6 AND PUSH1 0x2 SUB PUSH2 0x6E6 JUMPI PUSH2 0x2710 PUSH2 0x633 PUSH2 0x620 DUP3 PUSH2 0x5D7 PUSH1 0x9 SLOAD DUP7 PUSH2 0x2E5C JUMP JUMPDEST PUSH1 0x7 DUP8 ADD SLOAD SWAP2 SWAP1 DIV SWAP5 DUP6 SWAP5 SWAP1 SWAP2 PUSH1 0x1 PUSH1 0x1 PUSH1 0xA0 SHL SUB AND SWAP1 DUP2 ISZERO PUSH2 0x6D7 JUMPI PUSH2 0x61B SWAP2 PUSH1 0x0 MSTORE PUSH1 0x6 PUSH1 0x20 MSTORE PUSH2 0x612 PUSH1 0x2 PUSH1 0x40 PUSH1 0x0 KECCAK256 ADD SLOAD DUP5 PUSH2 0x2E5C JUMP JUMPDEST DIV SWAP6 DUP7 SWAP3 PUSH2 0x2E6F JUMP JUMPDEST PUSH2 0x2E6F JUMP JUMPDEST PUSH1 0x1 DUP7 ADD SLOAD PUSH1 0x1 PUSH1 0x1 PUSH1 0xA0 SHL SUB AND PUSH2 0x315D JUMP JUMPDEST DUP1 PUSH2 0x6BB JUMPI JUMPDEST POP DUP1 ISZERO ISZERO DUP1 PUSH2 0x6A5 JUMPI JUMPDEST PUSH2 0x65B JUMPI JUMPDEST POP POP ADD DUP1 SLOAD PUSH1 0xFF NOT AND PUSH1 0x1 OR SWAP1 SSTORE PUSH2 0x582 JUMP JUMPDEST PUSH1 0x7 DUP3 ADD SLOAD PUSH2 0x673 SWAP2 SWAP1 PUSH1 0x1 PUSH1 0x1 PUSH1 0xA0 SHL SUB AND PUSH2 0x315D JUMP JUMPDEST PUSH1 0x7 ADD SLOAD PUSH1 0x1 PUSH1 0x1 PUSH1 0xA0 SHL SUB AND PUSH1 0x0 SWAP1 DUP2 MSTORE PUSH1 0x6 PUSH1 0x20 MSTORE PUSH1 0x40 SWAP1 KECCAK256 PUSH1 0x3 ADD DUP1 SLOAD PUSH2 0x69C SWAP1 PUSH2 0x2DF3 JUMP JUMPDEST SWAP1 SSTORE DUP4 DUP1 PUSH2 0x648 JUMP JUMPDEST POP PUSH1 0x7 DUP3 ADD SLOAD PUSH1 0x1 PUSH1 0x1 PUSH1 0xA0 SHL SUB AND ISZERO ISZERO PUSH2 0x643 JUMP JUMPDEST PUSH1 0x8 SLOAD PUSH2 0x6D1 SWAP2 SWAP1 PUSH1 0x1 PUSH1 0x1 PUSH1 0xA0 SHL SUB AND PUSH2 0x315D JUMP JUMPDEST DUP6 PUSH2 0x639 JUMP JUMPDEST POP POP PUSH2 0x61B PUSH1 0x0 SWAP6 DUP7 SWAP3 PUSH2 0x2E6F JUMP JUMPDEST PUSH2 0x704 DUP2 PUSH1 0x1 SWAP3 DUP4 SHR SWAP1 PUSH2 0x61B DUP3 DUP6 DUP1 PUSH1 0xA0 SHL SUB DUP7 DUP10 ADD SLOAD AND PUSH2 0x315D JUMP JUMPDEST SWAP2 ADD SLOAD PUSH1 0x0 MSTORE PUSH1 0x5 PUSH1 0x20 MSTORE PUSH1 0x40 PUSH1 0x0 KECCAK256 PUSH1 0x1 DUP1 PUSH1 0xA0 SHL SUB PUSH1 0xA DUP5 ADD SLOAD AND PUSH1 0x0 MSTORE PUSH1 0x20 MSTORE PUSH2 0x737 PUSH1 0x40 PUSH1 0x0 KECCAK256 SWAP2 DUP3 SLOAD PUSH2 0x2DE6 JUMP JUMPDEST SWAP1 SSTORE ADD DUP1 SLOAD PUSH1 0xFF NOT AND PUSH1 0x1 OR SWAP1 SSTORE PUSH2 0x582 JUMP JUMPDEST ADD CALLDATALOAD SWAP1 POP DUP7 DUP1 PUSH2 0x507 JUMP JUMPDEST PUSH1 0x6 DUP4 ADD PUSH1 0x0 MSTORE PUSH1 0x20 PUSH1 0x0 KECCAK256 SWAP1 PUSH1 0x0 JUMPDEST PUSH1 0x1F NOT DUP5 AND DUP2 LT PUSH2 0x7B0 JUMPI POP SWAP1 PUSH1 0xE SWAP6 SWAP7 DUP4 SWAP3 PUSH1 0x1 SWAP5 PUSH1 0x1F NOT DUP2 AND LT PUSH2 0x796 JUMPI JUMPDEST POP POP POP DUP2 SHL ADD PUSH1 0x6 DUP3 ADD SSTORE PUSH2 0x51F JUMP JUMPDEST ADD CALLDATALOAD PUSH1 0x0 NOT PUSH1 0x3 DUP5 SWAP1 SHL PUSH1 0xF8 AND SHR NOT AND SWAP1 SSTORE DUP7 DUP1 DUP1 PUSH2 0x786 JUMP JUMPDEST SWAP1 SWAP2 PUSH1 0x20 PUSH1 0x1 DUP2 SWAP3 DUP6 DUP12 ADD CALLDATALOAD DUP2 SSTORE ADD SWAP4 ADD SWAP2 ADD PUSH2 0x765 JUMP JUMPDEST PUSH4 0x4E487B71 PUSH1 0xE0 SHL PUSH1 0x0 MSTORE PUSH1 0x41 PUSH1 0x4 MSTORE PUSH1 0x24 PUSH1 0x0 REVERT JUMPDEST PUSH1 0x40 MLOAD PUSH3 0x461BCD PUSH1 0xE5 SHL DUP2 MSTORE PUSH1 0x20 PUSH1 0x4 DUP3 ADD MSTORE PUSH1 0xE PUSH1 0x24 DUP3 ADD MSTORE PUSH14 0x496E76616C69642072756C696E67 PUSH1 0x90 SHL PUSH1 0x44 DUP3 ADD MSTORE PUSH1 0x64 SWAP1 REVERT JUMPDEST POP PUSH1 0x3 PUSH1 0xFF DUP9 AND GT ISZERO PUSH2 0x4B3 JUMP JUMPDEST PUSH1 0x40 MLOAD PUSH3 0x461BCD PUSH1 0xE5 SHL DUP2 MSTORE PUSH1 0x20 PUSH1 0x4 DUP3 ADD MSTORE PUSH1 0xE PUSH1 0x24 DUP3 ADD MSTORE PUSH14 0x2737BA1030B93134BA3930BA37B9 PUSH1 0x91 SHL PUSH1 0x44 DUP3 ADD MSTORE PUSH1 0x64 SWAP1 REVERT JUMPDEST POP PUSH1 0x8 SLOAD PUSH1 0x1 PUSH1 0x1 PUSH1 0xA0 SHL SUB AND CALLER EQ PUSH2 0x4A0 JUMP JUMPDEST PUSH1 0x40 MLOAD PUSH3 0x461BCD PUSH1 0xE5 SHL DUP2 MSTORE PUSH1 0x20 PUSH1 0x4 DUP3 ADD MSTORE PUSH1 0x10 PUSH1 0x24 DUP3 ADD MSTORE PUSH16 0x2234B9B83ABA32903737BA1037B832B7 PUSH1 0x81 SHL PUSH1 0x44 DUP3 ADD MSTORE PUSH1 0x64 SWAP1 REVERT JUMPDEST PUSH1 0x1 SWAP2 POP EQ DUP10 PUSH2 0x483 JUMP JUMPDEST PUSH1 0x40 CALLDATASIZE PUSH1 0x3 NOT ADD SLT PUSH2 0x31F JUMPI PUSH1 0x1 PUSH1 0x1 PUSH1 0x40 SHL SUB PUSH1 0x4 CALLDATALOAD DUP2 DUP2 GT PUSH2 0x31F JUMPI PUSH2 0x8DB SWAP1 CALLDATASIZE SWAP1 PUSH1 0x4 ADD PUSH2 0x28FB JUMP JUMPDEST SWAP2 PUSH1 0x24 CALLDATALOAD SWAP1 PUSH1 0xA SLOAD CALLVALUE LT PUSH2 0xBB6 JUMPI CALLER PUSH1 0x0 MSTORE PUSH1 0x6 PUSH1 0x20 MSTORE PUSH1 0xFF PUSH1 0x5 PUSH1 0x40 PUSH1 0x0 KECCAK256 ADD SLOAD AND PUSH2 0xB7C JUMPI PUSH2 0x1F4 DUP3 GT PUSH2 0xB4A JUMPI DUP4 ISZERO PUSH2 0xB15 JUMPI PUSH1 0x40 MLOAD SWAP1 PUSH2 0x91E DUP3 PUSH2 0x29D9 JUMP JUMPDEST CALLER DUP3 MSTORE PUSH2 0x92C CALLDATASIZE DUP7 DUP7 PUSH2 0x2CC5 JUMP JUMPDEST SWAP3 PUSH1 0x20 DUP4 ADD SWAP4 DUP5 MSTORE PUSH1 0x40 DUP4 ADD SWAP1 DUP2 MSTORE PUSH1 0x60 DUP4 ADD PUSH1 0x0 DUP2 MSTORE PUSH1 0x80 DUP5 ADD SWAP2 PUSH1 0x32 DUP4 MSTORE PUSH1 0xA0 DUP6 ADD SWAP4 PUSH1 0x1 DUP6 MSTORE CALLVALUE PUSH1 0xC0 DUP8 ADD MSTORE CALLER PUSH1 0x0 MSTORE PUSH1 0x6 PUSH1 0x20 MSTORE PUSH1 0x40 PUSH1 0x0 KECCAK256 SWAP7 PUSH1 0x1 DUP1 PUSH1 0xA0 SHL SUB DUP8 MLOAD AND PUSH1 0x1 PUSH1 0x1 PUSH1 0x60 SHL SUB PUSH1 0xA0 SHL DUP10 SLOAD AND OR DUP9 SSTORE MLOAD DUP1 MLOAD SWAP2 DUP3 GT PUSH2 0x7C8 JUMPI PUSH2 0x9A9 DUP3 PUSH2 0x9A0 PUSH1 0x1 DUP12 ADD SLOAD PUSH2 0x2968 JUMP JUMPDEST PUSH1 0x1 DUP12 ADD PUSH2 0x2CFC JUMP JUMPDEST PUSH1 0x20 SWAP1 PUSH1 0x1F DUP4 GT PUSH1 0x1 EQ PUSH2 0xA99 JUMPI SWAP3 DUP3 PUSH1 0x6 SWAP9 SWAP7 SWAP4 PUSH2 0xA11 SWAP7 SWAP4 PUSH1 0xC0 SWAP10 SWAP7 PUSH1 0x0 SWAP3 PUSH2 0xA8E JUMPI JUMPDEST POP POP DUP2 PUSH1 0x1 SHL SWAP2 PUSH1 0x0 NOT SWAP1 PUSH1 0x3 SHL SHR NOT AND OR PUSH1 0x1 DUP11 ADD SSTORE JUMPDEST MLOAD PUSH1 0x2 DUP10 ADD SSTORE MLOAD PUSH1 0x3 DUP9 ADD SSTORE MLOAD PUSH1 0x4 DUP8 ADD SSTORE MLOAD ISZERO ISZERO PUSH1 0x5 DUP7 ADD SWAP1 PUSH1 0xFF DUP1 NOT DUP4 SLOAD AND SWAP2 ISZERO ISZERO AND OR SWAP1 SSTORE JUMP JUMPDEST ADD MLOAD SWAP2 ADD SSTORE PUSH1 0x7 SLOAD PUSH1 0x1 PUSH1 0x40 SHL DUP2 LT ISZERO PUSH2 0x7C8 JUMPI PUSH32 0x750F2390FA9547F1FE4068F3B2CB76E48A0D32F60C92C0E091B26189954101D6 SWAP2 PUSH2 0xA5A DUP3 PUSH1 0x1 PUSH2 0xA89 SWAP5 ADD PUSH1 0x7 SSTORE PUSH2 0x286A JUMP JUMPDEST DUP2 SLOAD SWAP1 PUSH1 0x3 SHL SWAP1 CALLER DUP3 SHL SWAP2 PUSH1 0x1 DUP1 PUSH1 0xA0 SHL SUB SWAP1 SHL NOT AND OR SWAP1 SSTORE PUSH1 0x40 MLOAD SWAP2 DUP3 SWAP2 PUSH1 0x20 DUP4 MSTORE CALLER SWAP6 PUSH1 0x20 DUP5 ADD SWAP2 PUSH2 0x2D85 JUMP JUMPDEST SUB SWAP1 LOG2 STOP JUMPDEST ADD MLOAD SWAP1 POP DUP14 DUP1 PUSH2 0x9CF JUMP JUMPDEST SWAP1 PUSH1 0x1 DUP10 ADD PUSH1 0x0 MSTORE PUSH1 0x20 PUSH1 0x0 KECCAK256 SWAP2 PUSH1 0x0 JUMPDEST PUSH1 0x1F NOT DUP6 AND DUP2 LT PUSH2 0xAFD JUMPI POP DUP4 PUSH2 0xA11 SWAP7 SWAP4 PUSH1 0xC0 SWAP10 SWAP7 SWAP4 PUSH1 0x1 SWAP4 PUSH1 0x6 SWAP13 SWAP11 SWAP8 PUSH1 0x1F NOT DUP2 AND LT PUSH2 0xAE4 JUMPI JUMPDEST POP POP POP DUP2 SHL ADD PUSH1 0x1 DUP11 ADD SSTORE PUSH2 0x9E7 JUMP JUMPDEST ADD MLOAD PUSH1 0x0 NOT PUSH1 0xF8 DUP5 PUSH1 0x3 SHL AND SHR NOT AND SWAP1 SSTORE DUP14 DUP1 DUP1 PUSH2 0xAD4 JUMP JUMPDEST SWAP2 SWAP3 PUSH1 0x20 PUSH1 0x1 DUP2 SWAP3 DUP7 DUP6 ADD MLOAD DUP2 SSTORE ADD SWAP5 ADD SWAP3 ADD PUSH2 0xAAA JUMP JUMPDEST PUSH1 0x40 MLOAD PUSH3 0x461BCD PUSH1 0xE5 SHL DUP2 MSTORE PUSH1 0x20 PUSH1 0x4 DUP3 ADD MSTORE PUSH1 0xD PUSH1 0x24 DUP3 ADD MSTORE PUSH13 0x13985B59481C995C5D5A5C9959 PUSH1 0x9A SHL PUSH1 0x44 DUP3 ADD MSTORE PUSH1 0x64 SWAP1 REVERT JUMPDEST PUSH1 0x40 MLOAD PUSH3 0x461BCD PUSH1 0xE5 SHL DUP2 MSTORE PUSH1 0x20 PUSH1 0x4 DUP3 ADD MSTORE PUSH1 0xA PUSH1 0x24 DUP3 ADD MSTORE PUSH10 0x466565206D6178203525 PUSH1 0xB0 SHL PUSH1 0x44 DUP3 ADD MSTORE PUSH1 0x64 SWAP1 REVERT JUMPDEST PUSH1 0x40 MLOAD PUSH3 0x461BCD PUSH1 0xE5 SHL DUP2 MSTORE PUSH1 0x20 PUSH1 0x4 DUP3 ADD MSTORE PUSH1 0x12 PUSH1 0x24 DUP3 ADD MSTORE PUSH18 0x105B1C9958591E481C9959DA5CDD195C9959 PUSH1 0x72 SHL PUSH1 0x44 DUP3 ADD MSTORE PUSH1 0x64 SWAP1 REVERT JUMPDEST PUSH1 0x40 MLOAD PUSH3 0x461BCD PUSH1 0xE5 SHL DUP2 MSTORE PUSH1 0x20 PUSH1 0x4 DUP3 ADD MSTORE PUSH1 0x12 PUSH1 0x24 DUP3 ADD MSTORE PUSH18 0x496E73756666696369656E74207374616B65 PUSH1 0x70 SHL PUSH1 0x44 DUP3 ADD MSTORE PUSH1 0x64 SWAP1 REVERT JUMPDEST CALLVALUE PUSH2 0x31F JUMPI PUSH1 0x20 CALLDATASIZE PUSH1 0x3 NOT ADD SLT PUSH2 0x31F JUMPI PUSH1 0x4 CALLDATALOAD PUSH2 0xC11 PUSH1 0x0 SLOAD DUP3 LT PUSH2 0x2DA6 JUMP JUMPDEST PUSH2 0xC1A DUP2 PUSH2 0x2B11 JUMP JUMPDEST POP PUSH1 0xC DUP2 ADD SWAP2 DUP3 SLOAD SWAP2 PUSH1 0x1 PUSH1 0xFF DUP5 AND SUB PUSH2 0xD2C JUMPI PUSH1 0x9 DUP2 ADD SLOAD TIMESTAMP LT PUSH2 0xCF4 JUMPI PUSH1 0x1 DUP2 ADD SLOAD PUSH1 0x1 PUSH1 0x1 PUSH1 0xA0 SHL SUB SWAP1 DUP2 AND CALLER EQ DUP1 ISZERO PUSH2 0xCE7 JUMPI JUMPDEST ISZERO PUSH2 0xCB1 JUMPI PUSH1 0xA DUP3 ADD SLOAD AND SWAP3 DUP4 PUSH2 0xC73 JUMPI POP POP DUP3 SLOAD PUSH1 0xFF NOT AND PUSH1 0x6 OR SWAP1 SWAP3 SSTORE STOP JUMPDEST PUSH1 0x20 SWAP2 PUSH32 0xD2AA34A4FDBBC6DFF6A3E56F46E0F3AE2A31D7785FF3487AA5C95C642ACEA501 SWAP4 SWAP5 SWAP6 PUSH1 0x2 PUSH1 0xB SWAP4 PUSH1 0xFF NOT AND OR SWAP1 SSTORE ADD SLOAD PUSH1 0x40 MLOAD SWAP1 DUP2 MSTORE LOG3 STOP JUMPDEST PUSH1 0x40 MLOAD PUSH3 0x461BCD PUSH1 0xE5 SHL DUP2 MSTORE PUSH1 0x20 PUSH1 0x4 DUP3 ADD MSTORE PUSH1 0xE PUSH1 0x24 DUP3 ADD MSTORE PUSH14 0x139BDD08185D5D1A1BDC9A5E9959 PUSH1 0x92 SHL PUSH1 0x44 DUP3 ADD MSTORE PUSH1 0x64 SWAP1 REVERT JUMPDEST POP DUP1 PUSH1 0x8 SLOAD AND CALLER EQ PUSH2 0xC52 JUMP JUMPDEST PUSH1 0x40 MLOAD PUSH3 0x461BCD PUSH1 0xE5 SHL DUP2 MSTORE PUSH1 0x20 PUSH1 0x4 DUP3 ADD MSTORE PUSH1 0x10 PUSH1 0x24 DUP3 ADD MSTORE PUSH16 0x139BDD08199A5B9A5CDA1959081E595D PUSH1 0x82 SHL PUSH1 0x44 DUP3 ADD MSTORE PUSH1 0x64 SWAP1 REVERT JUMPDEST PUSH1 0x40 MLOAD PUSH3 0x461BCD PUSH1 0xE5 SHL DUP2 MSTORE PUSH1 0x20 PUSH1 0x4 DUP3 ADD MSTORE PUSH1 0xA PUSH1 0x24 DUP3 ADD MSTORE PUSH10 0x4E6F7420616374697665 PUSH1 0xB0 SHL PUSH1 0x44 DUP3 ADD MSTORE PUSH1 0x64 SWAP1 REVERT JUMPDEST CALLVALUE PUSH2 0x31F JUMPI PUSH1 0x20 DUP1 PUSH1 0x3 NOT CALLDATASIZE ADD SLT PUSH2 0x31F JUMPI PUSH1 0x4 CALLDATALOAD DUP1 PUSH1 0x0 MSTORE PUSH1 0x5 DUP3 MSTORE PUSH1 0x40 PUSH1 0x0 KECCAK256 CALLER PUSH1 0x0 MSTORE DUP3 MSTORE PUSH1 0x40 PUSH1 0x0 KECCAK256 SLOAD SWAP1 DUP2 ISZERO PUSH2 0xDB7 JUMPI SWAP2 PUSH2 0x1B SWAP3 PUSH1 0x0 MSTORE PUSH1 0x5 DUP2 MSTORE PUSH1 0x40 PUSH1 0x0 KECCAK256 SWAP1 CALLER PUSH1 0x0 MSTORE MSTORE PUSH1 0x0 PUSH1 0x40 DUP2 KECCAK256 SSTORE CALLER PUSH2 0x315D JUMP JUMPDEST PUSH1 0x40 MLOAD PUSH3 0x461BCD PUSH1 0xE5 SHL DUP2 MSTORE PUSH1 0x4 DUP2 ADD DUP5 SWAP1 MSTORE PUSH1 0x13 PUSH1 0x24 DUP3 ADD MSTORE PUSH19 0x4E6F7468696E6720746F207769746864726177 PUSH1 0x68 SHL PUSH1 0x44 DUP3 ADD MSTORE PUSH1 0x64 SWAP1 REVERT JUMPDEST PUSH1 0x20 DUP1 PUSH1 0x3 NOT CALLDATASIZE ADD SLT PUSH2 0x31F JUMPI PUSH1 0x4 CALLDATALOAD PUSH2 0xE0F PUSH1 0x0 SLOAD DUP3 LT PUSH2 0x2DA6 JUMP JUMPDEST PUSH2 0xE18 DUP2 PUSH2 0x2B11 JUMP JUMPDEST POP PUSH1 0x1 PUSH1 0xFF PUSH1 0xC DUP4 ADD SLOAD AND SUB PUSH2 0x10C0 JUMPI PUSH1 0x8 DUP2 ADD SLOAD TIMESTAMP LT PUSH2 0x1089 JUMPI PUSH1 0x9 DUP2 ADD SLOAD TIMESTAMP LT ISZERO PUSH2 0x1054 JUMPI PUSH1 0x1 DUP2 ADD SLOAD PUSH1 0x1 PUSH1 0x1 PUSH1 0xA0 SHL SUB SWAP2 SWAP1 DUP3 AND CALLER EQ PUSH2 0x101B JUMPI CALLVALUE ISZERO PUSH2 0xFE9 JUMPI PUSH1 0xB DUP2 ADD DUP1 SLOAD SWAP2 SWAP1 DUP3 PUSH2 0xFD6 JUMPI PUSH1 0x5 DUP3 ADD SLOAD JUMPDEST CALLVALUE LT PUSH2 0xFA3 JUMPI PUSH1 0xA DUP3 ADD SWAP3 DUP5 DUP5 SLOAD AND DUP1 PUSH2 0xF77 JUMPI JUMPDEST POP POP PUSH2 0xE90 DUP6 CALLER PUSH2 0x2E02 JUMP JUMPDEST ISZERO PUSH2 0xF5C JUMPI JUMPDEST PUSH1 0x1 PUSH1 0x1 PUSH1 0x60 SHL SUB PUSH1 0xA0 SHL SWAP3 CALLER DUP5 DUP3 SLOAD AND OR SWAP1 SSTORE CALLVALUE SWAP1 SSTORE PUSH1 0x7 CALLVALUE SWAP2 ADD SSTORE DUP3 PUSH1 0x0 MSTORE PUSH1 0x2 DUP5 MSTORE PUSH1 0x40 PUSH1 0x0 KECCAK256 PUSH1 0x40 MLOAD SWAP2 PUSH2 0xECD DUP4 PUSH2 0x29A2 JUMP JUMPDEST CALLER DUP4 MSTORE DUP6 DUP4 ADD SWAP1 CALLVALUE DUP3 MSTORE PUSH1 0x40 DUP5 ADD SWAP3 TIMESTAMP DUP5 MSTORE DUP1 SLOAD PUSH1 0x1 PUSH1 0x40 SHL DUP2 LT ISZERO PUSH2 0x7C8 JUMPI PUSH2 0xEFC SWAP2 PUSH1 0x1 DUP3 ADD DUP2 SSTORE PUSH2 0x2C8E JUMP JUMPDEST SWAP6 SWAP1 SWAP6 PUSH2 0xF46 JUMPI PUSH1 0x2 SWAP5 MLOAD AND SWAP1 DUP6 SLOAD AND OR DUP5 SSTORE MLOAD PUSH1 0x1 DUP5 ADD SSTORE MLOAD SWAP2 ADD SSTORE PUSH32 0xE54EFF26401BF69B81B26F60BD85EF47F5D85275C1D268D84F68D6897431C47 PUSH1 0x40 MLOAD SWAP3 CALLVALUE DUP5 MSTORE CALLER SWAP4 LOG3 STOP JUMPDEST PUSH4 0x4E487B71 PUSH1 0xE0 SHL PUSH1 0x0 MSTORE PUSH1 0x0 PUSH1 0x4 MSTORE PUSH1 0x24 PUSH1 0x0 REVERT JUMPDEST CALLER PUSH1 0x0 MSTORE PUSH1 0x4 DUP7 MSTORE PUSH2 0xF72 DUP6 PUSH1 0x40 PUSH1 0x0 KECCAK256 PUSH2 0x2D50 JUMP JUMPDEST PUSH2 0xE96 JUMP JUMPDEST DUP7 PUSH1 0x0 MSTORE PUSH1 0x5 DUP9 MSTORE PUSH1 0x40 PUSH1 0x0 KECCAK256 SWAP1 PUSH1 0x0 MSTORE DUP8 MSTORE PUSH2 0xF9A PUSH1 0x40 PUSH1 0x0 KECCAK256 SWAP2 DUP3 SLOAD PUSH2 0x2DE6 JUMP JUMPDEST SWAP1 SSTORE DUP7 DUP1 PUSH2 0xE84 JUMP JUMPDEST PUSH1 0x40 MLOAD PUSH3 0x461BCD PUSH1 0xE5 SHL DUP2 MSTORE PUSH1 0x4 DUP2 ADD DUP8 SWAP1 MSTORE PUSH1 0xB PUSH1 0x24 DUP3 ADD MSTORE PUSH11 0x42696420746F6F206C6F77 PUSH1 0xA8 SHL PUSH1 0x44 DUP3 ADD MSTORE PUSH1 0x64 SWAP1 REVERT JUMPDEST PUSH2 0xFE4 PUSH1 0x6 DUP4 ADD SLOAD DUP5 PUSH2 0x2DE6 JUMP JUMPDEST PUSH2 0xE6F JUMP JUMPDEST PUSH1 0x40 MLOAD PUSH3 0x461BCD PUSH1 0xE5 SHL DUP2 MSTORE PUSH1 0x4 DUP2 ADD DUP6 SWAP1 MSTORE PUSH1 0xA PUSH1 0x24 DUP3 ADD MSTORE PUSH10 0x5A65726F2076616C7565 PUSH1 0xB0 SHL PUSH1 0x44 DUP3 ADD MSTORE PUSH1 0x64 SWAP1 REVERT JUMPDEST PUSH1 0x40 MLOAD PUSH3 0x461BCD PUSH1 0xE5 SHL DUP2 MSTORE PUSH1 0x4 DUP2 ADD DUP6 SWAP1 MSTORE PUSH1 0x11 PUSH1 0x24 DUP3 ADD MSTORE PUSH17 0x14D95B1B195C8818D85B9B9BDD08189A59 PUSH1 0x7A SHL PUSH1 0x44 DUP3 ADD MSTORE PUSH1 0x64 SWAP1 REVERT JUMPDEST PUSH1 0x40 MLOAD PUSH3 0x461BCD PUSH1 0xE5 SHL DUP2 MSTORE PUSH1 0x4 DUP2 ADD DUP5 SWAP1 MSTORE PUSH1 0xD PUSH1 0x24 DUP3 ADD MSTORE PUSH13 0x105B1C9958591E48195B991959 PUSH1 0x9A SHL PUSH1 0x44 DUP3 ADD MSTORE PUSH1 0x64 SWAP1 REVERT JUMPDEST PUSH1 0x40 MLOAD PUSH3 0x461BCD PUSH1 0xE5 SHL DUP2 MSTORE PUSH1 0x4 DUP2 ADD DUP5 SWAP1 MSTORE PUSH1 0xF PUSH1 0x24 DUP3 ADD MSTORE PUSH15 0x139BDD081CDD185C9D1959081E595D PUSH1 0x8A SHL PUSH1 0x44 DUP3 ADD MSTORE PUSH1 0x64 SWAP1 REVERT JUMPDEST PUSH1 0x40 MLOAD PUSH3 0x461BCD PUSH1 0xE5 SHL DUP2 MSTORE PUSH1 0x4 DUP2 ADD DUP5 SWAP1 MSTORE PUSH1 0x12 PUSH1 0x24 DUP3 ADD MSTORE PUSH18 0x41756374696F6E206E6F7420616374697665 PUSH1 0x70 SHL PUSH1 0x44 DUP3 ADD MSTORE PUSH1 0x64 SWAP1 REVERT JUMPDEST CALLVALUE PUSH2 0x31F JUMPI PUSH1 0x0 CALLDATASIZE PUSH1 0x3 NOT ADD SLT PUSH2 0x31F JUMPI PUSH1 0x8 SLOAD PUSH1 0x40 MLOAD PUSH1 0x1 PUSH1 0x1 PUSH1 0xA0 SHL SUB SWAP1 SWAP2 AND DUP2 MSTORE PUSH1 0x20 SWAP1 RETURN JUMPDEST CALLVALUE PUSH2 0x31F JUMPI PUSH2 0x100 CALLDATASIZE PUSH1 0x3 NOT ADD SLT PUSH2 0x31F JUMPI PUSH1 0x4 CALLDATALOAD PUSH1 0x1 PUSH1 0x1 PUSH1 0x40 SHL SUB DUP2 GT PUSH2 0x31F JUMPI PUSH2 0x1154 SWAP1 CALLDATASIZE SWAP1 PUSH1 0x4 ADD PUSH2 0x28FB JUMP JUMPDEST SWAP1 PUSH1 0x24 CALLDATALOAD PUSH1 0x1 PUSH1 0x1 PUSH1 0x40 SHL SUB DUP2 GT PUSH2 0x31F JUMPI PUSH2 0x1174 SWAP1 CALLDATASIZE SWAP1 PUSH1 0x4 ADD PUSH2 0x28FB JUMP JUMPDEST SWAP3 SWAP1 SWAP2 PUSH1 0x44 CALLDATALOAD PUSH1 0x1 PUSH1 0x1 PUSH1 0x40 SHL SUB DUP2 GT PUSH2 0x31F JUMPI PUSH2 0x1196 SWAP1 CALLDATASIZE SWAP1 PUSH1 0x4 ADD PUSH2 0x28FB JUMP JUMPDEST SWAP4 PUSH1 0xE4 CALLDATALOAD SWAP2 PUSH1 0x1 PUSH1 0x1 PUSH1 0xA0 SHL SUB DUP4 AND DUP4 SUB PUSH2 0x31F JUMPI TIMESTAMP PUSH1 0xC4 CALLDATALOAD GT ISZERO PUSH2 0x17F1 JUMPI PUSH1 0xA4 CALLDATALOAD PUSH1 0xC4 CALLDATALOAD GT ISZERO PUSH2 0x17B9 JUMPI PUSH1 0x64 CALLDATALOAD ISZERO PUSH2 0x177E JUMPI PUSH1 0x84 CALLDATALOAD ISZERO PUSH2 0x1746 JUMPI PUSH1 0x1 PUSH1 0x1 PUSH1 0xA0 SHL SUB DUP4 AND ISZERO DUP1 ISZERO PUSH2 0x1721 JUMPI JUMPDEST ISZERO PUSH2 0x16E7 JUMPI PUSH1 0x0 SLOAD SWAP6 PUSH1 0xA4 CALLDATALOAD TIMESTAMP LT PUSH2 0x16DF JUMPI PUSH1 0x1 SWAP3 JUMPDEST PUSH1 0x40 MLOAD SWAP9 PUSH2 0x1206 DUP11 PUSH2 0x29F4 JUMP JUMPDEST DUP9 DUP11 MSTORE CALLER PUSH1 0x20 DUP12 ADD MSTORE PUSH2 0x121A CALLDATASIZE DUP10 DUP10 PUSH2 0x2CC5 JUMP JUMPDEST PUSH1 0x40 DUP12 ADD MSTORE CALLDATASIZE SWAP1 PUSH2 0x122A SWAP3 PUSH2 0x2CC5 JUMP JUMPDEST PUSH1 0x60 DUP10 ADD MSTORE CALLDATASIZE SWAP1 PUSH2 0x123A SWAP3 PUSH2 0x2CC5 JUMP JUMPDEST PUSH1 0x80 DUP8 ADD MSTORE PUSH1 0x64 CALLDATALOAD PUSH1 0xA0 DUP8 ADD MSTORE PUSH1 0x84 CALLDATALOAD PUSH1 0xC0 DUP8 ADD MSTORE PUSH1 0x64 CALLDATALOAD PUSH1 0xE0 DUP8 ADD MSTORE PUSH1 0xA4 CALLDATALOAD PUSH2 0x100 DUP8 ADD MSTORE PUSH1 0xC4 CALLDATALOAD PUSH2 0x120 DUP8 ADD MSTORE PUSH2 0x140 DUP7 ADD PUSH1 0x0 SWAP1 MSTORE PUSH2 0x160 DUP7 ADD PUSH1 0x0 SWAP1 MSTORE PUSH1 0xFF AND PUSH2 0x180 DUP7 ADD MSTORE PUSH1 0x1 PUSH1 0xA0 SHL PUSH1 0x1 SWAP1 SUB AND PUSH2 0x1A0 DUP6 ADD MSTORE PUSH2 0x1C0 DUP5 ADD PUSH1 0x0 SWAP1 MSTORE PUSH2 0x1E0 DUP5 ADD PUSH1 0x0 SWAP1 MSTORE PUSH1 0x1 PUSH1 0x40 SHL DUP4 LT ISZERO PUSH2 0x7C8 JUMPI PUSH1 0x1 DUP4 ADD PUSH1 0x0 SSTORE PUSH2 0x12C2 DUP4 PUSH2 0x2B11 JUMP JUMPDEST SWAP2 SWAP1 SWAP2 PUSH2 0xF46 JUMPI DUP5 MLOAD DUP3 SSTORE PUSH1 0x20 DUP6 ADD MLOAD PUSH1 0x1 DUP4 ADD DUP1 SLOAD PUSH1 0x1 PUSH1 0x1 PUSH1 0xA0 SHL SUB NOT AND PUSH1 0x1 PUSH1 0x1 PUSH1 0xA0 SHL SUB SWAP3 SWAP1 SWAP3 AND SWAP2 SWAP1 SWAP2 OR SWAP1 SSTORE PUSH1 0x40 DUP6 ADD MLOAD DUP1 MLOAD PUSH1 0x1 PUSH1 0x1 PUSH1 0x40 SHL SUB DUP2 GT PUSH2 0x7C8 JUMPI DUP1 PUSH1 0x2 DUP6 ADD SWAP3 PUSH2 0x1323 DUP3 PUSH2 0x131D DUP7 SLOAD PUSH2 0x2968 JUMP JUMPDEST DUP7 PUSH2 0x2CFC JUMP JUMPDEST PUSH1 0x20 SWAP1 PUSH1 0x1F DUP4 GT PUSH1 0x1 EQ PUSH2 0x1679 JUMPI PUSH1 0x0 SWAP3 PUSH2 0x166E JUMPI JUMPDEST POP POP DUP2 PUSH1 0x1 SHL SWAP2 PUSH1 0x0 NOT SWAP1 PUSH1 0x3 SHL SHR NOT AND OR SWAP1 SSTORE JUMPDEST PUSH1 0x60 DUP6 ADD MLOAD DUP1 MLOAD SWAP1 PUSH1 0x1 PUSH1 0x1 PUSH1 0x40 SHL SUB DUP3 GT PUSH2 0x7C8 JUMPI DUP2 SWAP1 PUSH2 0x1380 DUP3 PUSH2 0x1377 PUSH1 0x3 DUP9 ADD SLOAD PUSH2 0x2968 JUMP JUMPDEST PUSH1 0x3 DUP9 ADD PUSH2 0x2CFC JUMP JUMPDEST PUSH1 0x20 SWAP1 PUSH1 0x1F DUP4 GT PUSH1 0x1 EQ PUSH2 0x15FC JUMPI PUSH1 0x0 SWAP3 PUSH2 0x15F1 JUMPI JUMPDEST POP POP DUP2 PUSH1 0x1 SHL SWAP2 PUSH1 0x0 NOT SWAP1 PUSH1 0x3 SHL SHR NOT AND OR PUSH1 0x3 DUP4 ADD SSTORE JUMPDEST PUSH1 0x80 DUP6 ADD MLOAD SWAP2 DUP3 MLOAD SWAP6 PUSH1 0x1 PUSH1 0x1 PUSH1 0x40 SHL SUB DUP8 GT PUSH2 0x7C8 JUMPI DUP7 DUP7 SWAP5 PUSH2 0x13E4 PUSH1 0x20 SWAP10 PUSH2 0x13DB PUSH1 0x4 DUP8 ADD SLOAD PUSH2 0x2968 JUMP JUMPDEST PUSH1 0x4 DUP8 ADD PUSH2 0x2CFC JUMP JUMPDEST DUP9 SWAP1 PUSH1 0x1F DUP4 GT PUSH1 0x1 EQ PUSH2 0x1551 JUMPI PUSH2 0x1E0 PUSH32 0x5DB69880ECD741CB72927505845A9C757184BABEA65C98A27788100FF8FBD186 SWAP7 SWAP5 DUP5 PUSH2 0x1500 SWAP6 PUSH2 0x1528 SWAP9 SWAP6 PUSH1 0xE SWAP6 PUSH1 0x0 SWAP3 PUSH2 0x1546 JUMPI JUMPDEST POP POP DUP2 PUSH1 0x1 SHL SWAP2 PUSH1 0x0 NOT SWAP1 PUSH1 0x3 SHL SHR NOT AND OR PUSH1 0x4 DUP6 ADD SSTORE JUMPDEST PUSH1 0xA0 DUP2 ADD MLOAD PUSH1 0x5 DUP6 ADD SSTORE PUSH1 0xC0 DUP2 ADD MLOAD PUSH1 0x6 DUP6 ADD SSTORE PUSH1 0xE0 DUP2 ADD MLOAD PUSH1 0x7 DUP6 ADD SSTORE PUSH2 0x100 DUP2 ADD MLOAD PUSH1 0x8 DUP6 ADD SSTORE PUSH2 0x120 DUP2 ADD MLOAD PUSH1 0x9 DUP6 ADD SSTORE PUSH1 0xA DUP5 ADD PUSH1 0x1 DUP1 PUSH1 0xA0 SHL SUB PUSH2 0x140 DUP4 ADD MLOAD AND PUSH1 0x1 PUSH1 0x1 PUSH1 0x60 SHL SUB PUSH1 0xA0 SHL DUP3 SLOAD AND OR SWAP1 SSTORE PUSH2 0x160 DUP2 ADD MLOAD PUSH1 0xB DUP6 ADD SSTORE PUSH1 0xC DUP5 ADD PUSH1 0xFF PUSH2 0x180 DUP4 ADD MLOAD AND DUP2 SLOAD SWAP1 PUSH2 0x100 PUSH1 0x1 PUSH1 0xA8 SHL SUB PUSH2 0x1A0 DUP6 ADD MLOAD PUSH1 0x8 SHL AND SWAP2 PUSH11 0xFFFFFFFFFFFFFFFFFFFFFF PUSH1 0xA8 SHL AND OR OR SWAP1 SSTORE PUSH2 0x1C0 DUP2 ADD MLOAD PUSH1 0xD DUP6 ADD SSTORE ADD MLOAD ISZERO ISZERO SWAP2 ADD SWAP1 PUSH1 0xFF DUP1 NOT DUP4 SLOAD AND SWAP2 ISZERO ISZERO AND OR SWAP1 SSTORE JUMP JUMPDEST CALLER PUSH1 0x0 MSTORE PUSH1 0x3 DUP8 MSTORE PUSH2 0x1516 DUP5 PUSH1 0x40 PUSH1 0x0 KECCAK256 PUSH2 0x2D50 JUMP JUMPDEST PUSH1 0x40 MLOAD SWAP5 PUSH1 0x60 DUP7 MSTORE PUSH1 0x60 DUP7 ADD SWAP2 PUSH2 0x2D85 JUMP JUMPDEST SWAP3 PUSH1 0x64 CALLDATALOAD DUP7 DUP3 ADD MSTORE PUSH1 0xC4 CALLDATALOAD PUSH1 0x40 DUP3 ADD MSTORE DUP1 CALLER SWAP5 SUB SWAP1 LOG3 PUSH1 0x40 MLOAD SWAP1 DUP2 MSTORE RETURN JUMPDEST ADD MLOAD SWAP1 POP DUP15 DUP1 PUSH2 0x142C JUMP JUMPDEST SWAP1 PUSH1 0x4 DUP6 ADD PUSH1 0x0 MSTORE DUP10 PUSH1 0x0 KECCAK256 SWAP2 PUSH1 0x0 JUMPDEST PUSH1 0x1F NOT DUP6 AND DUP2 LT PUSH2 0x15D7 JUMPI POP PUSH32 0x5DB69880ECD741CB72927505845A9C757184BABEA65C98A27788100FF8FBD186 SWAP7 SWAP5 PUSH1 0x1 DUP6 PUSH2 0x1528 SWAP9 SWAP6 PUSH1 0xE SWAP6 PUSH2 0x1E0 SWAP6 PUSH2 0x1500 SWAP10 PUSH1 0x1F NOT DUP2 AND LT PUSH2 0x15BE JUMPI JUMPDEST POP POP POP DUP2 SHL ADD PUSH1 0x4 DUP6 ADD SSTORE PUSH2 0x1444 JUMP JUMPDEST ADD MLOAD PUSH1 0x0 NOT PUSH1 0xF8 DUP5 PUSH1 0x3 SHL AND SHR NOT AND SWAP1 SSTORE DUP15 DUP1 DUP1 PUSH2 0x15AE JUMP JUMPDEST DUP2 DUP4 ADD MLOAD DUP5 SSTORE DUP11 SWAP9 POP PUSH1 0x1 SWAP1 SWAP4 ADD SWAP3 SWAP2 DUP12 ADD SWAP2 DUP12 ADD PUSH2 0x1561 JUMP JUMPDEST ADD MLOAD SWAP1 POP DUP8 DUP1 PUSH2 0x1396 JUMP JUMPDEST SWAP3 POP PUSH1 0x3 DUP6 ADD PUSH1 0x0 MSTORE PUSH1 0x20 PUSH1 0x0 KECCAK256 SWAP1 PUSH1 0x0 SWAP4 JUMPDEST PUSH1 0x1F NOT DUP5 AND DUP6 LT PUSH2 0x1653 JUMPI PUSH1 0x1 SWAP5 POP DUP4 PUSH1 0x1F NOT DUP2 AND LT PUSH2 0x163A JUMPI JUMPDEST POP POP POP DUP2 SHL ADD PUSH1 0x3 DUP4 ADD SSTORE PUSH2 0x13AE JUMP JUMPDEST ADD MLOAD PUSH1 0x0 NOT PUSH1 0xF8 DUP5 PUSH1 0x3 SHL AND SHR NOT AND SWAP1 SSTORE DUP8 DUP1 DUP1 PUSH2 0x162A JUMP JUMPDEST DUP2 DUP2 ADD MLOAD DUP4 SSTORE PUSH1 0x20 SWAP5 DUP6 ADD SWAP5 PUSH1 0x1 SWAP1 SWAP4 ADD SWAP3 SWAP1 SWAP2 ADD SWAP1 PUSH2 0x160F JUMP JUMPDEST ADD MLOAD SWAP1 POP DUP9 DUP1 PUSH2 0x1339 JUMP JUMPDEST PUSH1 0x0 DUP6 DUP2 MSTORE PUSH1 0x20 DUP2 KECCAK256 SWAP4 POP PUSH1 0x1F NOT DUP6 AND SWAP1 JUMPDEST DUP2 DUP2 LT PUSH2 0x16C7 JUMPI POP SWAP1 DUP5 PUSH1 0x1 SWAP6 SWAP5 SWAP4 SWAP3 LT PUSH2 0x16AE JUMPI JUMPDEST POP POP POP DUP2 SHL ADD SWAP1 SSTORE PUSH2 0x134E JUMP JUMPDEST ADD MLOAD PUSH1 0x0 NOT PUSH1 0xF8 DUP5 PUSH1 0x3 SHL AND SHR NOT AND SWAP1 SSTORE DUP9 DUP1 DUP1 PUSH2 0x16A1 JUMP JUMPDEST SWAP3 SWAP4 PUSH1 0x20 PUSH1 0x1 DUP2 SWAP3 DUP8 DUP7 ADD MLOAD DUP2 SSTORE ADD SWAP6 ADD SWAP4 ADD PUSH2 0x168B JUMP JUMPDEST PUSH1 0x0 SWAP3 PUSH2 0x11F9 JUMP JUMPDEST PUSH1 0x40 MLOAD PUSH3 0x461BCD PUSH1 0xE5 SHL DUP2 MSTORE PUSH1 0x20 PUSH1 0x4 DUP3 ADD MSTORE PUSH1 0x12 PUSH1 0x24 DUP3 ADD MSTORE PUSH18 0x24B73B30B634B21030B93134BA3930BA37B9 PUSH1 0x71 SHL PUSH1 0x44 DUP3 ADD MSTORE PUSH1 0x64 SWAP1 REVERT JUMPDEST POP PUSH1 0x1 PUSH1 0x1 PUSH1 0xA0 SHL SUB DUP4 AND PUSH1 0x0 SWAP1 DUP2 MSTORE PUSH1 0x6 PUSH1 0x20 MSTORE PUSH1 0x40 SWAP1 KECCAK256 PUSH1 0x5 ADD SLOAD PUSH1 0xFF AND PUSH2 0x11E3 JUMP JUMPDEST PUSH1 0x40 MLOAD PUSH3 0x461BCD PUSH1 0xE5 SHL DUP2 MSTORE PUSH1 0x20 PUSH1 0x4 DUP3 ADD MSTORE PUSH1 0x10 PUSH1 0x24 DUP3 ADD MSTORE PUSH16 0x496E76616C696420626964207374657 PUSH1 0x84 SHL PUSH1 0x44 DUP3 ADD MSTORE PUSH1 0x64 SWAP1 REVERT JUMPDEST PUSH1 0x40 MLOAD PUSH3 0x461BCD PUSH1 0xE5 SHL DUP2 MSTORE PUSH1 0x20 PUSH1 0x4 DUP3 ADD MSTORE PUSH1 0x13 PUSH1 0x24 DUP3 ADD MSTORE PUSH19 0x496E76616C6964207374617274207072696365 PUSH1 0x68 SHL PUSH1 0x44 DUP3 ADD MSTORE PUSH1 0x64 SWAP1 REVERT JUMPDEST PUSH1 0x40 MLOAD PUSH3 0x461BCD PUSH1 0xE5 SHL DUP2 MSTORE PUSH1 0x20 PUSH1 0x4 DUP3 ADD MSTORE PUSH1 0x10 PUSH1 0x24 DUP3 ADD MSTORE PUSH16 0x115B99081899599BDC99481CDD185C9D PUSH1 0x82 SHL PUSH1 0x44 DUP3 ADD MSTORE PUSH1 0x64 SWAP1 REVERT JUMPDEST PUSH1 0x40 MLOAD PUSH3 0x461BCD PUSH1 0xE5 SHL DUP2 MSTORE PUSH1 0x20 PUSH1 0x4 DUP3 ADD MSTORE PUSH1 0x10 PUSH1 0x24 DUP3 ADD MSTORE PUSH16 0x115B99081D1A5B59481A5B881C185CDD PUSH1 0x82 SHL PUSH1 0x44 DUP3 ADD MSTORE PUSH1 0x64 SWAP1 REVERT JUMPDEST CALLVALUE PUSH2 0x31F JUMPI PUSH1 0x20 CALLDATASIZE PUSH1 0x3 NOT ADD SLT PUSH2 0x31F JUMPI PUSH1 0x4 CALLDATALOAD PUSH2 0x184A PUSH1 0x0 SLOAD DUP3 LT PUSH2 0x2DA6 JUMP JUMPDEST PUSH2 0x1853 DUP2 PUSH2 0x2B11 JUMP JUMPDEST POP SWAP1 PUSH1 0x2 PUSH1 0xFF PUSH1 0xC DUP5 ADD SLOAD AND SUB PUSH2 0x19A9 JUMPI PUSH1 0xFF PUSH1 0xE DUP4 ADD SLOAD AND PUSH2 0x1971 JUMPI PUSH1 0xA SWAP2 SWAP1 SWAP2 ADD SLOAD PUSH1 0x1 PUSH1 0x1 PUSH1 0xA0 SHL SUB SWAP2 SWAP1 DUP3 AND CALLER SUB PUSH2 0x192C JUMPI PUSH32 0x6E3C6096795C8298A218B2CFB8BDE42726FF7C9A3D27B4D3BA41AB7F74FEB5FB PUSH1 0x20 PUSH2 0x18B5 DUP4 PUSH2 0x2B11 JUMP JUMPDEST POP SWAP4 PUSH1 0xB DUP6 ADD SLOAD PUSH1 0x1 PUSH2 0x18D8 PUSH2 0x2710 PUSH2 0x18D0 PUSH1 0x9 SLOAD DUP6 PUSH2 0x2E5C JUMP JUMPDEST DIV DUP1 SWAP4 PUSH2 0x2E6F JUMP JUMPDEST SWAP7 PUSH1 0xE DUP2 ADD PUSH1 0xFF NOT SWAP1 DUP4 DUP3 DUP3 SLOAD AND OR SWAP1 SSTORE PUSH1 0x3 PUSH1 0xC DUP4 ADD SWAP2 DUP3 SLOAD AND OR SWAP1 SSTORE ADD SWAP1 PUSH2 0x1905 DUP8 DUP5 DUP5 SLOAD AND PUSH2 0x315D JUMP JUMPDEST DUP1 PUSH2 0x1918 JUMPI JUMPDEST POP SLOAD AND SWAP4 PUSH1 0x40 MLOAD SWAP1 DUP2 MSTORE LOG3 STOP JUMPDEST PUSH2 0x1926 SWAP1 DUP4 PUSH1 0x8 SLOAD AND PUSH2 0x315D JUMP JUMPDEST DUP7 PUSH2 0x190B JUMP JUMPDEST PUSH1 0x40 MLOAD PUSH3 0x461BCD PUSH1 0xE5 SHL DUP2 MSTORE PUSH1 0x20 PUSH1 0x4 DUP3 ADD MSTORE PUSH1 0x17 PUSH1 0x24 DUP3 ADD MSTORE PUSH32 0x4F6E6C792077696E6E65722063616E20636F6E6669726D000000000000000000 PUSH1 0x44 DUP3 ADD MSTORE PUSH1 0x64 SWAP1 REVERT JUMPDEST PUSH1 0x40 MLOAD PUSH3 0x461BCD PUSH1 0xE5 SHL DUP2 MSTORE PUSH1 0x20 PUSH1 0x4 DUP3 ADD MSTORE PUSH1 0x10 PUSH1 0x24 DUP3 ADD MSTORE PUSH16 0x105B1C9958591E481C995B19585CD959 PUSH1 0x82 SHL PUSH1 0x44 DUP3 ADD MSTORE PUSH1 0x64 SWAP1 REVERT JUMPDEST PUSH1 0x40 MLOAD PUSH3 0x461BCD PUSH1 0xE5 SHL DUP2 MSTORE PUSH1 0x20 PUSH1 0x4 DUP3 ADD MSTORE PUSH1 0x12 PUSH1 0x24 DUP3 ADD MSTORE PUSH18 0x4E6F7420696E20456E646564207374617465 PUSH1 0x70 SHL PUSH1 0x44 DUP3 ADD MSTORE PUSH1 0x64 SWAP1 REVERT JUMPDEST CALLVALUE PUSH2 0x31F JUMPI PUSH1 0x0 CALLDATASIZE PUSH1 0x3 NOT ADD SLT PUSH2 0x31F JUMPI PUSH1 0x20 PUSH1 0xA SLOAD PUSH1 0x40 MLOAD SWAP1 DUP2 MSTORE RETURN JUMPDEST CALLVALUE PUSH2 0x31F JUMPI PUSH2 0x1A0F CALLDATASIZE PUSH2 0x2C78 JUMP JUMPDEST SWAP1 PUSH1 0x0 MSTORE PUSH1 0x2 PUSH1 0x20 MSTORE PUSH1 0x40 PUSH1 0x0 KECCAK256 DUP1 SLOAD DUP3 LT ISZERO PUSH2 0x31F JUMPI PUSH1 0x60 SWAP2 PUSH2 0x1A32 SWAP2 PUSH2 0x2C8E JUMP JUMPDEST POP PUSH1 0x1 DUP1 PUSH1 0xA0 SHL SUB DUP2 SLOAD AND SWAP1 PUSH1 0x2 PUSH1 0x1 DUP3 ADD SLOAD SWAP2 ADD SLOAD SWAP1 PUSH1 0x40 MLOAD SWAP3 DUP4 MSTORE PUSH1 0x20 DUP4 ADD MSTORE PUSH1 0x40 DUP3 ADD MSTORE RETURN JUMPDEST CALLVALUE PUSH2 0x31F JUMPI PUSH1 0x20 CALLDATASIZE PUSH1 0x3 NOT ADD SLT PUSH2 0x31F JUMPI PUSH2 0x1AAD PUSH2 0x1A99 PUSH2 0x1A93 PUSH1 0x4 CALLDATALOAD PUSH2 0x1A80 PUSH2 0x2EBC JUMP JUMPDEST POP PUSH2 0x1A8E PUSH1 0x0 SLOAD DUP3 LT PUSH2 0x2DA6 JUMP JUMPDEST PUSH2 0x2B11 JUMP JUMPDEST POP PUSH2 0x2F34 JUMP JUMPDEST PUSH1 0x40 MLOAD SWAP2 DUP3 SWAP2 PUSH1 0x20 DUP4 MSTORE PUSH1 0x20 DUP4 ADD SWAP1 PUSH2 0x2B9A JUMP JUMPDEST SUB SWAP1 RETURN JUMPDEST CALLVALUE PUSH2 0x31F JUMPI PUSH1 0x20 DUP1 PUSH1 0x3 NOT CALLDATASIZE ADD SLT PUSH2 0x31F JUMPI PUSH1 0x1 PUSH1 0x1 PUSH1 0xA0 SHL SUB PUSH2 0x1AD3 PUSH2 0x28CF JUMP JUMPDEST AND PUSH1 0x0 MSTORE PUSH1 0x3 DUP2 MSTORE PUSH1 0x40 PUSH1 0x0 KECCAK256 SWAP1 PUSH1 0x40 MLOAD SWAP1 DUP2 DUP2 DUP5 SLOAD SWAP2 DUP3 DUP2 MSTORE ADD SWAP4 PUSH1 0x0 MSTORE DUP2 PUSH1 0x0 KECCAK256 SWAP2 PUSH1 0x0 SWAP1 JUMPDEST DUP3 DUP3 LT PUSH2 0x1B1E JUMPI PUSH2 0x1AAD DUP6 PUSH2 0x1B12 DUP2 DUP10 SUB DUP3 PUSH2 0x2A10 JUMP JUMPDEST PUSH1 0x40 MLOAD SWAP2 DUP3 SWAP2 DUP3 PUSH2 0x2B5F JUMP JUMPDEST DUP4 SLOAD DUP7 MSTORE SWAP5 DUP6 ADD SWAP5 PUSH1 0x1 SWAP4 DUP5 ADD SWAP4 SWAP1 SWAP2 ADD SWAP1 PUSH2 0x1AFB JUMP JUMPDEST CALLVALUE PUSH2 0x31F JUMPI PUSH1 0x20 DUP1 PUSH1 0x3 NOT CALLDATASIZE ADD SLT PUSH2 0x31F JUMPI PUSH1 0x1 PUSH1 0x1 PUSH1 0xA0 SHL SUB PUSH2 0x1B57 PUSH2 0x28CF JUMP JUMPDEST AND PUSH1 0x0 MSTORE PUSH1 0x4 DUP2 MSTORE PUSH1 0x40 PUSH1 0x0 KECCAK256 SWAP1 PUSH1 0x40 MLOAD SWAP1 DUP2 DUP2 DUP5 SLOAD SWAP2 DUP3 DUP2 MSTORE ADD SWAP4 PUSH1 0x0 MSTORE DUP2 PUSH1 0x0 KECCAK256 SWAP2 PUSH1 0x0 SWAP1 JUMPDEST DUP3 DUP3 LT PUSH2 0x1B96 JUMPI PUSH2 0x1AAD DUP6 PUSH2 0x1B12 DUP2 DUP10 SUB DUP3 PUSH2 0x2A10 JUMP JUMPDEST DUP4 SLOAD DUP7 MSTORE SWAP5 DUP6 ADD SWAP5 PUSH1 0x1 SWAP4 DUP5 ADD SWAP4 SWAP1 SWAP2 ADD SWAP1 PUSH2 0x1B7F JUMP JUMPDEST CALLVALUE PUSH2 0x31F JUMPI PUSH1 0x20 CALLDATASIZE PUSH1 0x3 NOT ADD SLT PUSH2 0x31F JUMPI PUSH1 0x4 CALLDATALOAD PUSH1 0x0 SLOAD DUP2 LT ISZERO PUSH2 0x31F JUMPI PUSH2 0x1BD4 SWAP1 PUSH2 0x2B11 JUMP JUMPDEST POP DUP1 SLOAD PUSH1 0x1 DUP3 ADD SLOAD PUSH1 0x1 PUSH1 0x1 PUSH1 0xA0 SHL SUB AND SWAP2 PUSH2 0x1BF2 PUSH1 0x2 DUP3 ADD PUSH2 0x2A31 JUMP JUMPDEST PUSH2 0x1BFE PUSH1 0x3 DUP4 ADD PUSH2 0x2A31 JUMP JUMPDEST SWAP2 PUSH2 0x1C0B PUSH1 0x4 DUP3 ADD PUSH2 0x2A31 JUMP JUMPDEST SWAP3 PUSH1 0x5 DUP3 ADD SLOAD SWAP4 PUSH1 0x6 DUP4 ADD SLOAD PUSH1 0x7 DUP5 ADD SLOAD PUSH1 0x8 DUP6 ADD SLOAD PUSH1 0x9 DUP7 ADD SLOAD SWAP2 PUSH1 0x1 PUSH1 0xA0 SHL PUSH1 0x1 SWAP1 SUB PUSH1 0xA DUP9 ADD SLOAD AND SWAP4 PUSH1 0xB DUP9 ADD SLOAD SWAP6 PUSH1 0xC DUP10 ADD SLOAD SWAP8 PUSH1 0xD DUP11 ADD SLOAD SWAP10 PUSH1 0xE ADD SLOAD PUSH1 0xFF AND SWAP11 PUSH1 0x40 MLOAD SWAP15 DUP16 SWAP15 DUP16 SWAP1 DUP2 MSTORE PUSH1 0x20 ADD MSTORE DUP14 PUSH2 0x200 SWAP1 DUP2 PUSH1 0x40 DUP3 ADD MSTORE ADD PUSH2 0x1C74 SWAP2 PUSH2 0x2928 JUMP JUMPDEST DUP14 DUP2 SUB PUSH1 0x60 DUP16 ADD MSTORE PUSH2 0x1C85 SWAP2 PUSH2 0x2928 JUMP JUMPDEST DUP13 DUP2 SUB PUSH1 0x80 DUP15 ADD MSTORE PUSH2 0x1C96 SWAP2 PUSH2 0x2928 JUMP JUMPDEST PUSH1 0xA0 DUP13 ADD SWAP11 SWAP1 SWAP11 MSTORE PUSH1 0xC0 DUP12 ADD MSTORE PUSH1 0xE0 DUP11 ADD MSTORE PUSH2 0x100 DUP10 ADD MSTORE PUSH2 0x120 DUP9 ADD MSTORE PUSH2 0x140 DUP8 ADD MSTORE PUSH2 0x160 DUP7 ADD MSTORE PUSH1 0xFF DUP2 AND PUSH2 0x180 DUP7 ADD MSTORE PUSH1 0x8 SHR PUSH1 0x1 PUSH1 0x1 PUSH1 0xA0 SHL SUB AND PUSH2 0x1A0 DUP6 ADD MSTORE PUSH2 0x1C0 DUP5 ADD MSTORE ISZERO ISZERO PUSH2 0x1E0 DUP4 ADD MSTORE SUB SWAP1 RETURN JUMPDEST CALLVALUE PUSH2 0x31F JUMPI PUSH1 0x20 CALLDATASIZE PUSH1 0x3 NOT ADD SLT PUSH2 0x31F JUMPI PUSH1 0x4 CALLDATALOAD PUSH1 0x1 SLOAD DUP2 LT ISZERO PUSH2 0x31F JUMPI PUSH2 0x1D15 SWAP1 PUSH2 0x2AD7 JUMP JUMPDEST POP DUP1 SLOAD PUSH1 0x1 DUP3 ADD SLOAD PUSH1 0x2 DUP4 ADD SLOAD SWAP1 SWAP3 PUSH1 0x1 PUSH1 0x1 PUSH1 0xA0 SHL SUB SWAP2 DUP3 AND SWAP2 PUSH2 0x1DAC SWAP2 PUSH1 0xFF PUSH2 0x1D42 PUSH1 0x3 DUP4 ADD PUSH2 0x2A31 JUMP JUMPDEST SWAP3 PUSH2 0x1D88 PUSH1 0x4 DUP5 ADD SLOAD SWAP5 PUSH1 0x5 DUP6 ADD SLOAD SWAP3 PUSH1 0x7 PUSH2 0x1D60 PUSH1 0x6 DUP9 ADD PUSH2 0x2A31 JUMP JUMPDEST SWAP7 ADD SLOAD AND SWAP8 PUSH1 0x40 MLOAD SWAP11 DUP12 SWAP11 DUP12 MSTORE PUSH1 0x20 DUP12 ADD MSTORE PUSH1 0x40 DUP11 ADD MSTORE PUSH2 0x120 DUP1 PUSH1 0x60 DUP12 ADD MSTORE DUP10 ADD SWAP1 PUSH2 0x2928 JUMP JUMPDEST SWAP4 PUSH1 0x80 DUP9 ADD MSTORE DUP2 DUP2 AND PUSH1 0xA0 DUP9 ADD MSTORE PUSH1 0x8 SHR AND PUSH1 0xC0 DUP7 ADD MSTORE DUP5 DUP3 SUB PUSH1 0xE0 DUP7 ADD MSTORE PUSH2 0x2928 JUMP JUMPDEST SWAP1 PUSH2 0x100 DUP4 ADD MSTORE SUB SWAP1 RETURN JUMPDEST CALLVALUE PUSH2 0x31F JUMPI PUSH1 0x20 CALLDATASIZE PUSH1 0x3 NOT ADD SLT PUSH2 0x31F JUMPI PUSH1 0x1 PUSH1 0x1 PUSH1 0xA0 SHL SUB DUP1 PUSH2 0x1DD9 PUSH2 0x28CF JUMP JUMPDEST AND PUSH1 0x0 MSTORE PUSH1 0x6 PUSH1 0x20 MSTORE PUSH1 0x40 PUSH1 0x0 KECCAK256 SWAP1 DUP2 SLOAD AND PUSH2 0x1DF7 PUSH1 0x1 DUP4 ADD PUSH2 0x2A31 JUMP JUMPDEST SWAP2 PUSH1 0x2 DUP2 ADD SLOAD SWAP1 PUSH1 0x3 DUP2 ADD SLOAD SWAP1 PUSH1 0x4 DUP2 ADD SLOAD PUSH1 0x6 PUSH1 0xFF PUSH1 0x5 DUP5 ADD SLOAD AND SWAP3 ADD SLOAD SWAP3 PUSH2 0x1E33 PUSH1 0x40 MLOAD SWAP8 DUP9 SWAP8 DUP9 MSTORE PUSH1 0xE0 PUSH1 0x20 DUP10 ADD MSTORE PUSH1 0xE0 DUP9 ADD SWAP1 PUSH2 0x2928 JUMP JUMPDEST SWAP5 PUSH1 0x40 DUP8 ADD MSTORE PUSH1 0x60 DUP7 ADD MSTORE PUSH1 0x80 DUP6 ADD MSTORE ISZERO ISZERO PUSH1 0xA0 DUP5 ADD MSTORE PUSH1 0xC0 DUP4 ADD MSTORE SUB SWAP1 RETURN JUMPDEST CALLVALUE PUSH2 0x31F JUMPI PUSH1 0x40 CALLDATASIZE PUSH1 0x3 NOT ADD SLT PUSH2 0x31F JUMPI PUSH2 0x1E6C PUSH2 0x28CF JUMP JUMPDEST PUSH1 0x1 PUSH1 0x1 PUSH1 0xA0 SHL SUB AND PUSH1 0x0 SWAP1 DUP2 MSTORE PUSH1 0x3 PUSH1 0x20 MSTORE PUSH1 0x40 SWAP1 KECCAK256 DUP1 SLOAD PUSH1 0x24 CALLDATALOAD SWAP2 SWAP1 DUP3 LT ISZERO PUSH2 0x31F JUMPI PUSH1 0x20 SWAP2 PUSH2 0x1E9D SWAP2 PUSH2 0x28B7 JUMP JUMPDEST SWAP1 SLOAD SWAP1 PUSH1 0x3 SHL SHR PUSH1 0x40 MLOAD SWAP1 DUP2 MSTORE RETURN JUMPDEST CALLVALUE PUSH2 0x31F JUMPI PUSH1 0x20 DUP1 PUSH1 0x3 NOT CALLDATASIZE ADD SLT PUSH2 0x31F JUMPI PUSH2 0x1EC6 PUSH2 0x28CF JUMP JUMPDEST SWAP1 PUSH1 0x0 PUSH1 0xC0 PUSH1 0x40 MLOAD PUSH2 0x1ED7 DUP2 PUSH2 0x29D9 JUMP JUMPDEST DUP3 DUP2 MSTORE PUSH1 0x60 DUP5 DUP3 ADD MSTORE DUP3 PUSH1 0x40 DUP3 ADD MSTORE DUP3 PUSH1 0x60 DUP3 ADD MSTORE DUP3 PUSH1 0x80 DUP3 ADD MSTORE DUP3 PUSH1 0xA0 DUP3 ADD MSTORE ADD MSTORE PUSH1 0x1 DUP1 PUSH1 0xA0 SHL SUB DUP1 SWAP3 AND PUSH1 0x0 MSTORE PUSH1 0x6 DUP2 MSTORE PUSH1 0x40 PUSH1 0x0 KECCAK256 PUSH1 0x40 MLOAD SWAP2 PUSH2 0x1F1D DUP4 PUSH2 0x29D9 JUMP JUMPDEST DUP4 DUP3 SLOAD AND DUP4 MSTORE PUSH2 0x1F2F PUSH1 0x1 DUP4 ADD PUSH2 0x2A31 JUMP JUMPDEST SWAP2 DUP2 DUP5 ADD SWAP3 DUP4 MSTORE PUSH1 0x2 DUP2 ADD SLOAD SWAP3 PUSH1 0x40 DUP6 ADD SWAP4 DUP5 MSTORE PUSH1 0x3 DUP3 ADD SLOAD PUSH1 0x60 DUP7 ADD SWAP1 DUP2 MSTORE PUSH2 0x1F9F PUSH1 0x4 DUP5 ADD SLOAD SWAP3 PUSH1 0x80 DUP9 ADD SWAP4 DUP5 MSTORE PUSH1 0x6 PUSH1 0xFF PUSH1 0x5 DUP8 ADD SLOAD AND SWAP6 PUSH1 0xA0 DUP11 ADD SWAP7 ISZERO ISZERO DUP8 MSTORE ADD SLOAD SWAP6 PUSH1 0xC0 DUP10 ADD SWAP7 DUP8 MSTORE PUSH1 0x40 MLOAD SWAP10 DUP11 SWAP10 DUP3 DUP12 MSTORE MLOAD AND SWAP1 DUP10 ADD MSTORE MLOAD PUSH1 0xE0 PUSH1 0x40 DUP10 ADD MSTORE PUSH2 0x100 DUP9 ADD SWAP1 PUSH2 0x2928 JUMP JUMPDEST SWAP5 MLOAD PUSH1 0x60 DUP8 ADD MSTORE MLOAD PUSH1 0x80 DUP7 ADD MSTORE MLOAD PUSH1 0xA0 DUP6 ADD MSTORE MLOAD ISZERO ISZERO PUSH1 0xC0 DUP5 ADD MSTORE MLOAD PUSH1 0xE0 DUP4 ADD MSTORE SUB SWAP1 RETURN JUMPDEST CALLVALUE PUSH2 0x31F JUMPI PUSH1 0x40 CALLDATASIZE PUSH1 0x3 NOT ADD SLT PUSH2 0x31F JUMPI PUSH1 0x24 CALLDATALOAD PUSH1 0x1 PUSH1 0x1 PUSH1 0x40 SHL SUB DUP2 GT PUSH2 0x31F JUMPI PUSH2 0x1FF4 SWAP1 CALLDATASIZE SWAP1 PUSH1 0x4 ADD PUSH2 0x28FB JUMP JUMPDEST SWAP1 PUSH2 0x2004 PUSH1 0x0 SLOAD PUSH1 0x4 CALLDATALOAD LT PUSH2 0x2DA6 JUMP JUMPDEST PUSH2 0x200F PUSH1 0x4 CALLDATALOAD PUSH2 0x2B11 JUMP JUMPDEST POP SWAP2 PUSH1 0xC DUP4 ADD SLOAD PUSH1 0xFF DUP2 AND PUSH1 0x2 DUP2 EQ SWAP1 DUP2 ISZERO PUSH2 0x249B JUMPI JUMPDEST POP ISZERO PUSH2 0x2456 JUMPI PUSH1 0xA DUP5 ADD SLOAD PUSH1 0x1 PUSH1 0x1 PUSH1 0xA0 SHL SUB AND CALLER EQ DUP1 ISZERO PUSH2 0x2440 JUMPI JUMPDEST ISZERO PUSH2 0x240D JUMPI PUSH1 0xD DUP5 ADD SLOAD PUSH2 0x23CF JUMPI DUP2 ISZERO PUSH2 0x2398 JUMPI PUSH2 0x2083 PUSH1 0x1 SLOAD SWAP4 PUSH1 0x40 MLOAD SWAP4 PUSH2 0x206B DUP6 PUSH2 0x29BD JUMP JUMPDEST DUP6 DUP6 MSTORE PUSH1 0x4 CALLDATALOAD PUSH1 0x20 DUP7 ADD MSTORE CALLER PUSH1 0x40 DUP7 ADD MSTORE CALLDATASIZE SWAP2 PUSH2 0x2CC5 JUMP JUMPDEST PUSH1 0x60 DUP4 ADD MSTORE TIMESTAMP PUSH1 0x80 DUP4 ADD MSTORE PUSH1 0x0 PUSH1 0xA0 DUP4 ADD MSTORE PUSH1 0x0 PUSH1 0xC0 DUP4 ADD MSTORE PUSH1 0x40 MLOAD DUP1 PUSH1 0x20 DUP2 ADD LT PUSH1 0x1 PUSH1 0x1 PUSH1 0x40 SHL SUB PUSH1 0x20 DUP4 ADD GT OR PUSH2 0x7C8 JUMPI PUSH1 0x20 DUP2 ADD PUSH1 0x40 MSTORE PUSH1 0x0 DUP2 MSTORE PUSH1 0xE0 DUP4 ADD MSTORE PUSH1 0x8 SHR PUSH1 0x1 PUSH1 0x1 PUSH1 0xA0 SHL SUB AND PUSH2 0x100 DUP3 ADD MSTORE PUSH1 0x1 PUSH1 0x40 SHL DUP3 LT ISZERO PUSH2 0x7C8 JUMPI PUSH1 0x1 DUP3 ADD PUSH1 0x1 SSTORE PUSH2 0x20F5 DUP3 PUSH2 0x2AD7 JUMP JUMPDEST PUSH2 0xF46 JUMPI DUP2 MLOAD DUP2 SSTORE PUSH1 0x20 DUP3 ADD MLOAD PUSH1 0x1 DUP3 ADD SSTORE PUSH1 0x2 DUP2 ADD PUSH1 0x1 DUP1 PUSH1 0xA0 SHL SUB PUSH1 0x40 DUP5 ADD MLOAD AND PUSH1 0x1 PUSH1 0x1 PUSH1 0x60 SHL SUB PUSH1 0xA0 SHL DUP3 SLOAD AND OR SWAP1 SSTORE PUSH1 0x60 DUP3 ADD MLOAD DUP1 MLOAD PUSH1 0x1 PUSH1 0x1 PUSH1 0x40 SHL SUB DUP2 GT PUSH2 0x7C8 JUMPI DUP1 PUSH1 0x3 DUP5 ADD SWAP3 PUSH2 0x2152 DUP3 PUSH2 0x131D DUP7 SLOAD PUSH2 0x2968 JUMP JUMPDEST PUSH1 0x20 SWAP1 PUSH1 0x1F DUP4 GT PUSH1 0x1 EQ PUSH2 0x2332 JUMPI PUSH1 0x0 SWAP3 PUSH2 0x2327 JUMPI JUMPDEST POP POP DUP2 PUSH1 0x1 SHL SWAP2 PUSH1 0x0 NOT SWAP1 PUSH1 0x3 SHL SHR NOT AND OR SWAP1 SSTORE JUMPDEST PUSH1 0x80 DUP3 ADD MLOAD PUSH1 0x4 DUP3 ADD SSTORE PUSH2 0x21BC PUSH1 0x5 DUP3 ADD PUSH1 0xFF PUSH1 0xA0 DUP6 ADD MLOAD AND PUSH1 0xFF NOT DUP3 SLOAD AND OR DUP2 SSTORE PUSH1 0xFF PUSH1 0xC0 DUP6 ADD MLOAD AND PUSH2 0xFF00 DUP3 SLOAD SWAP2 PUSH1 0x8 SHL AND SWAP1 PUSH2 0xFF00 NOT AND OR SWAP1 SSTORE JUMP JUMPDEST PUSH1 0xE0 DUP3 ADD MLOAD DUP1 MLOAD PUSH1 0x1 PUSH1 0x1 PUSH1 0x40 SHL SUB DUP2 GT PUSH2 0x7C8 JUMPI PUSH1 0x6 DUP4 ADD SWAP2 PUSH2 0x21EA DUP3 PUSH2 0x21E4 DUP6 SLOAD PUSH2 0x2968 JUMP JUMPDEST DUP6 PUSH2 0x2CFC JUMP JUMPDEST PUSH1 0x20 SWAP1 PUSH1 0x1F DUP4 GT PUSH1 0x1 EQ PUSH2 0x22BB JUMPI PUSH1 0x7 SWAP5 SWAP4 SWAP3 SWAP2 PUSH1 0x0 SWAP2 DUP4 PUSH2 0x22B0 JUMPI JUMPDEST POP POP DUP2 PUSH1 0x1 SHL SWAP2 PUSH1 0x0 NOT SWAP1 PUSH1 0x3 SHL SHR NOT AND OR SWAP1 SSTORE JUMPDEST PUSH2 0x100 SWAP1 SWAP3 ADD MLOAD SWAP2 ADD DUP1 SLOAD PUSH1 0x1 PUSH1 0x1 PUSH1 0xA0 SHL SUB NOT AND PUSH1 0x1 PUSH1 0x1 PUSH1 0xA0 SHL SUB SWAP3 SWAP1 SWAP3 AND SWAP2 SWAP1 SWAP2 OR SWAP1 SSTORE PUSH1 0xC DUP3 ADD DUP1 SLOAD PUSH1 0xFF NOT AND PUSH1 0x4 OR SWAP1 SSTORE PUSH1 0x1 DUP2 ADD DUP2 GT PUSH2 0x229A JUMPI PUSH1 0x20 SWAP2 PUSH1 0xD PUSH1 0x1 DUP4 ADD SWAP2 ADD SSTORE PUSH1 0x40 MLOAD SWAP1 CALLER PUSH1 0x4 CALLDATALOAD DUP3 PUSH32 0xC6FB55A2BD2838E444163CECE1945A661C371C5EC8C1A4EA5D697AEFC7690547 PUSH1 0x0 DUP1 LOG4 DUP2 MSTORE RETURN JUMPDEST PUSH4 0x4E487B71 PUSH1 0xE0 SHL PUSH1 0x0 MSTORE PUSH1 0x11 PUSH1 0x4 MSTORE PUSH1 0x24 PUSH1 0x0 REVERT JUMPDEST ADD MLOAD SWAP1 POP DUP9 DUP1 PUSH2 0x2207 JUMP JUMPDEST SWAP1 PUSH1 0x1F NOT DUP4 AND SWAP2 DUP5 PUSH1 0x0 MSTORE PUSH1 0x20 PUSH1 0x0 KECCAK256 SWAP3 PUSH1 0x0 JUMPDEST DUP2 DUP2 LT PUSH2 0x230F JUMPI POP SWAP2 PUSH1 0x1 SWAP4 SWAP2 DUP6 PUSH1 0x7 SWAP9 SWAP8 SWAP7 SWAP5 LT PUSH2 0x22F6 JUMPI JUMPDEST POP POP POP DUP2 SHL ADD SWAP1 SSTORE PUSH2 0x221C JUMP JUMPDEST ADD MLOAD PUSH1 0x0 NOT PUSH1 0xF8 DUP5 PUSH1 0x3 SHL AND SHR NOT AND SWAP1 SSTORE DUP9 DUP1 DUP1 PUSH2 0x22E9 JUMP JUMPDEST SWAP3 SWAP4 PUSH1 0x20 PUSH1 0x1 DUP2 SWAP3 DUP8 DUP7 ADD MLOAD DUP2 SSTORE ADD SWAP6 ADD SWAP4 ADD PUSH2 0x22CF JUMP JUMPDEST ADD MLOAD SWAP1 POP DUP8 DUP1 PUSH2 0x2168 JUMP JUMPDEST PUSH1 0x0 DUP6 DUP2 MSTORE PUSH1 0x20 DUP2 KECCAK256 SWAP4 POP PUSH1 0x1F NOT DUP6 AND SWAP1 JUMPDEST DUP2 DUP2 LT PUSH2 0x2380 JUMPI POP SWAP1 DUP5 PUSH1 0x1 SWAP6 SWAP5 SWAP4 SWAP3 LT PUSH2 0x2367 JUMPI JUMPDEST POP POP POP DUP2 SHL ADD SWAP1 SSTORE PUSH2 0x217D JUMP JUMPDEST ADD MLOAD PUSH1 0x0 NOT PUSH1 0xF8 DUP5 PUSH1 0x3 SHL AND SHR NOT AND SWAP1 SSTORE DUP8 DUP1 DUP1 PUSH2 0x235A JUMP JUMPDEST SWAP3 SWAP4 PUSH1 0x20 PUSH1 0x1 DUP2 SWAP3 DUP8 DUP7 ADD MLOAD DUP2 SSTORE ADD SWAP6 ADD SWAP4 ADD PUSH2 0x2344 JUMP JUMPDEST PUSH1 0x40 MLOAD PUSH3 0x461BCD PUSH1 0xE5 SHL DUP2 MSTORE PUSH1 0x20 PUSH1 0x4 DUP3 ADD MSTORE PUSH1 0xF PUSH1 0x24 DUP3 ADD MSTORE PUSH15 0x1499585CDBDB881C995C5D5A5C9959 PUSH1 0x8A SHL PUSH1 0x44 DUP3 ADD MSTORE PUSH1 0x64 SWAP1 REVERT JUMPDEST PUSH1 0x40 MLOAD PUSH3 0x461BCD PUSH1 0xE5 SHL DUP2 MSTORE PUSH1 0x20 PUSH1 0x4 DUP3 ADD MSTORE PUSH1 0x16 PUSH1 0x24 DUP3 ADD MSTORE PUSH22 0x4469737075746520616C726561647920657869737473 PUSH1 0x50 SHL PUSH1 0x44 DUP3 ADD MSTORE PUSH1 0x64 SWAP1 REVERT JUMPDEST PUSH1 0x40 MLOAD PUSH3 0x461BCD PUSH1 0xE5 SHL DUP2 MSTORE PUSH1 0x20 PUSH1 0x4 DUP3 ADD MSTORE PUSH1 0xB PUSH1 0x24 DUP3 ADD MSTORE PUSH11 0x4E6F742061207061727479 PUSH1 0xA8 SHL PUSH1 0x44 DUP3 ADD MSTORE PUSH1 0x64 SWAP1 REVERT JUMPDEST POP PUSH1 0x1 DUP5 ADD SLOAD PUSH1 0x1 PUSH1 0x1 PUSH1 0xA0 SHL SUB AND CALLER EQ PUSH2 0x2043 JUMP JUMPDEST PUSH1 0x40 MLOAD PUSH3 0x461BCD PUSH1 0xE5 SHL DUP2 MSTORE PUSH1 0x20 PUSH1 0x4 DUP3 ADD MSTORE PUSH1 0x1C PUSH1 0x24 DUP3 ADD MSTORE PUSH32 0x43616E6E6F74206469737075746520696E207468697320737461746500000000 PUSH1 0x44 DUP3 ADD MSTORE PUSH1 0x64 SWAP1 REVERT JUMPDEST PUSH1 0x1 SWAP2 POP EQ DUP6 PUSH2 0x2026 JUMP JUMPDEST CALLVALUE PUSH2 0x31F JUMPI PUSH1 0x0 CALLDATASIZE PUSH1 0x3 NOT ADD SLT PUSH2 0x31F JUMPI PUSH1 0x20 PUSH1 0x9 SLOAD PUSH1 0x40 MLOAD SWAP1 DUP2 MSTORE RETURN JUMPDEST CALLVALUE PUSH2 0x31F JUMPI PUSH1 0x40 CALLDATASIZE PUSH1 0x3 NOT ADD SLT PUSH2 0x31F JUMPI PUSH2 0x24DD PUSH2 0x28CF JUMP JUMPDEST PUSH1 0x1 PUSH1 0x1 PUSH1 0xA0 SHL SUB AND PUSH1 0x0 SWAP1 DUP2 MSTORE PUSH1 0x4 PUSH1 0x20 MSTORE PUSH1 0x40 SWAP1 KECCAK256 DUP1 SLOAD PUSH1 0x24 CALLDATALOAD SWAP2 SWAP1 DUP3 LT ISZERO PUSH2 0x31F JUMPI PUSH1 0x20 SWAP2 PUSH2 0x250E SWAP2 PUSH2 0x28B7 JUMP JUMPDEST SWAP1 SLOAD PUSH1 0x40 MLOAD SWAP2 PUSH1 0x3 SHL SHR DUP2 MSTORE RETURN JUMPDEST CALLVALUE PUSH2 0x31F JUMPI PUSH1 0x0 CALLDATASIZE PUSH1 0x3 NOT ADD SLT PUSH2 0x31F JUMPI PUSH1 0x40 MLOAD DUP1 PUSH1 0x7 SLOAD DUP1 DUP4 MSTORE PUSH1 0x20 DUP1 SWAP4 ADD DUP1 SWAP2 PUSH1 0x7 PUSH1 0x0 MSTORE PUSH32 0xA66CC928B5EDB82AF9BD49922954155AB7B0942694BEA4CE44661D9A8736C688 SWAP1 PUSH1 0x0 JUMPDEST DUP7 DUP3 DUP3 LT PUSH2 0x25C7 JUMPI DUP7 DUP7 PUSH2 0x257E DUP3 DUP9 SUB DUP4 PUSH2 0x2A10 JUMP JUMPDEST PUSH1 0x40 MLOAD SWAP3 DUP4 SWAP3 DUP2 DUP5 ADD SWAP1 DUP3 DUP6 MSTORE MLOAD DUP1 SWAP2 MSTORE PUSH1 0x40 DUP5 ADD SWAP3 SWAP2 PUSH1 0x0 JUMPDEST DUP3 DUP2 LT PUSH2 0x25A7 JUMPI POP POP POP POP SUB SWAP1 RETURN JUMPDEST DUP4 MLOAD PUSH1 0x1 PUSH1 0x1 PUSH1 0xA0 SHL SUB AND DUP6 MSTORE DUP7 SWAP6 POP SWAP4 DUP2 ADD SWAP4 SWAP3 DUP2 ADD SWAP3 PUSH1 0x1 ADD PUSH2 0x2598 JUMP JUMPDEST DUP4 SLOAD PUSH1 0x1 PUSH1 0x1 PUSH1 0xA0 SHL SUB AND DUP6 MSTORE SWAP1 SWAP4 ADD SWAP3 PUSH1 0x1 SWAP3 DUP4 ADD SWAP3 ADD PUSH2 0x2568 JUMP JUMPDEST CALLVALUE PUSH2 0x31F JUMPI PUSH1 0x0 CALLDATASIZE PUSH1 0x3 NOT ADD SLT PUSH2 0x31F JUMPI PUSH1 0x20 PUSH1 0x7 SLOAD PUSH1 0x40 MLOAD SWAP1 DUP2 MSTORE RETURN JUMPDEST CALLVALUE PUSH2 0x31F JUMPI PUSH1 0x20 DUP1 PUSH1 0x3 NOT CALLDATASIZE ADD SLT PUSH2 0x31F JUMPI PUSH1 0x4 CALLDATALOAD PUSH1 0x0 MSTORE PUSH1 0x2 SWAP1 DUP2 DUP2 MSTORE PUSH1 0x40 PUSH1 0x0 KECCAK256 SWAP2 DUP3 SLOAD PUSH2 0x2631 DUP2 PUSH2 0x300D JUMP JUMPDEST SWAP2 PUSH2 0x263F PUSH1 0x40 MLOAD SWAP4 DUP5 PUSH2 0x2A10 JUMP JUMPDEST DUP2 DUP4 MSTORE PUSH1 0x0 SWAP5 DUP6 MSTORE DUP4 DUP6 KECCAK256 DUP5 DUP5 ADD SWAP6 SWAP2 DUP7 JUMPDEST DUP5 DUP5 LT PUSH2 0x26B0 JUMPI PUSH1 0x40 DUP1 MLOAD DUP9 DUP2 MSTORE DUP8 MLOAD DUP2 DUP11 ADD DUP2 SWAP1 MSTORE DUP11 SWAP3 DUP3 ADD SWAP1 DUP11 PUSH1 0x0 JUMPDEST DUP3 DUP2 LT PUSH2 0x267D JUMPI DUP5 DUP5 SUB DUP6 RETURN JUMPDEST DUP6 MLOAD DUP1 MLOAD PUSH1 0x1 PUSH1 0x1 PUSH1 0xA0 SHL SUB AND DUP6 MSTORE DUP1 DUP4 ADD MLOAD DUP6 DUP5 ADD MSTORE PUSH1 0x40 SWAP1 DUP2 ADD MLOAD SWAP1 DUP6 ADD MSTORE SWAP5 DUP2 ADD SWAP5 PUSH1 0x60 SWAP1 SWAP4 ADD SWAP3 PUSH1 0x1 ADD PUSH2 0x2670 JUMP JUMPDEST PUSH1 0x3 DUP8 PUSH1 0x1 SWAP3 PUSH1 0x40 MLOAD PUSH2 0x26C2 DUP2 PUSH2 0x29A2 JUMP JUMPDEST DUP5 DUP1 PUSH1 0xA0 SHL SUB DUP8 SLOAD AND DUP2 MSTORE DUP5 DUP8 ADD SLOAD DUP4 DUP3 ADD MSTORE DUP6 DUP8 ADD SLOAD PUSH1 0x40 DUP3 ADD MSTORE DUP2 MSTORE ADD SWAP4 ADD SWAP4 ADD SWAP3 SWAP2 PUSH2 0x2651 JUMP JUMPDEST CALLVALUE PUSH2 0x31F JUMPI PUSH1 0x20 CALLDATASIZE PUSH1 0x3 NOT ADD SLT PUSH2 0x31F JUMPI PUSH1 0x4 CALLDATALOAD PUSH2 0x2715 PUSH1 0x1 DUP1 PUSH1 0xA0 SHL SUB PUSH1 0x8 SLOAD AND CALLER EQ PUSH2 0x3125 JUMP JUMPDEST PUSH2 0x3E8 DUP2 GT PUSH2 0x2723 JUMPI PUSH1 0x9 SSTORE STOP JUMPDEST PUSH1 0x40 MLOAD PUSH3 0x461BCD PUSH1 0xE5 SHL DUP2 MSTORE PUSH1 0x20 PUSH1 0x4 DUP3 ADD MSTORE PUSH1 0x7 PUSH1 0x24 DUP3 ADD MSTORE PUSH7 0x4D617820313025 PUSH1 0xC8 SHL PUSH1 0x44 DUP3 ADD MSTORE PUSH1 0x64 SWAP1 REVERT JUMPDEST CALLVALUE PUSH2 0x31F JUMPI PUSH1 0x0 CALLDATASIZE PUSH1 0x3 NOT ADD SLT PUSH2 0x31F JUMPI PUSH1 0x20 PUSH1 0x1 SLOAD PUSH1 0x40 MLOAD SWAP1 DUP2 MSTORE RETURN JUMPDEST CALLVALUE PUSH2 0x31F JUMPI PUSH1 0x20 CALLDATASIZE PUSH1 0x3 NOT ADD SLT PUSH2 0x31F JUMPI PUSH2 0x2796 PUSH1 0x1 DUP1 PUSH1 0xA0 SHL SUB PUSH1 0x8 SLOAD AND CALLER EQ PUSH2 0x3125 JUMP JUMPDEST PUSH1 0x4 CALLDATALOAD PUSH1 0xA SSTORE STOP JUMPDEST CALLVALUE PUSH2 0x31F JUMPI PUSH1 0x20 CALLDATASIZE PUSH1 0x3 NOT ADD SLT PUSH2 0x31F JUMPI PUSH1 0x4 CALLDATALOAD PUSH1 0x7 SLOAD DUP2 LT ISZERO PUSH2 0x31F JUMPI PUSH2 0x27C7 PUSH1 0x20 SWAP2 PUSH2 0x286A JUMP JUMPDEST SWAP1 SLOAD PUSH1 0x40 MLOAD PUSH1 0x3 SWAP3 SWAP1 SWAP3 SHL SHR PUSH1 0x1 PUSH1 0x1 PUSH1 0xA0 SHL SUB AND DUP2 MSTORE RETURN JUMPDEST CALLVALUE PUSH2 0x31F JUMPI PUSH1 0x0 CALLDATASIZE PUSH1 0x3 NOT ADD SLT PUSH2 0x31F JUMPI CALLER PUSH1 0x0 MSTORE PUSH1 0x6 PUSH1 0x20 MSTORE PUSH1 0xFF PUSH1 0x5 PUSH1 0x40 PUSH1 0x0 KECCAK256 ADD SLOAD AND ISZERO PUSH2 0x2837 JUMPI CALLER PUSH1 0x0 MSTORE PUSH1 0x6 PUSH1 0x20 MSTORE PUSH2 0x1B PUSH1 0x40 PUSH1 0x0 KECCAK256 PUSH1 0x0 PUSH1 0x6 DUP3 ADD PUSH1 0x5 DUP2 SLOAD SWAP4 ADD PUSH1 0xFF NOT DUP2 SLOAD AND SWAP1 SSTORE SSTORE CALLER PUSH2 0x315D JUMP JUMPDEST PUSH3 0x461BCD PUSH1 0xE5 SHL DUP2 MSTORE PUSH1 0x20 PUSH1 0x4 DUP3 ADD MSTORE PUSH1 0xE PUSH1 0x24 DUP3 ADD MSTORE PUSH14 0x139BDD081C9959DA5CDD195C9959 PUSH1 0x92 SHL PUSH1 0x44 DUP3 ADD MSTORE PUSH1 0x64 SWAP1 REVERT JUMPDEST PUSH1 0x7 SLOAD DUP2 LT ISZERO PUSH2 0x28A1 JUMPI PUSH1 0x7 PUSH1 0x0 MSTORE PUSH32 0xA66CC928B5EDB82AF9BD49922954155AB7B0942694BEA4CE44661D9A8736C688 ADD SWAP1 PUSH1 0x0 SWAP1 JUMP JUMPDEST PUSH4 0x4E487B71 PUSH1 0xE0 SHL PUSH1 0x0 MSTORE PUSH1 0x32 PUSH1 0x4 MSTORE PUSH1 0x24 PUSH1 0x0 REVERT JUMPDEST DUP1 SLOAD DUP3 LT ISZERO PUSH2 0x28A1 JUMPI PUSH1 0x0 MSTORE PUSH1 0x20 PUSH1 0x0 KECCAK256 ADD SWAP1 PUSH1 0x0 SWAP1 JUMP JUMPDEST PUSH1 0x4 CALLDATALOAD SWAP1 PUSH1 0x1 PUSH1 0x1 PUSH1 0xA0 SHL SUB DUP3 AND DUP3 SUB PUSH2 0x31F JUMPI JUMP JUMPDEST PUSH1 0x24 CALLDATALOAD SWAP1 PUSH1 0x1 PUSH1 0x1 PUSH1 0xA0 SHL SUB DUP3 AND DUP3 SUB PUSH2 0x31F JUMPI JUMP JUMPDEST SWAP2 DUP2 PUSH1 0x1F DUP5 ADD SLT ISZERO PUSH2 0x31F JUMPI DUP3 CALLDATALOAD SWAP2 PUSH1 0x1 PUSH1 0x1 PUSH1 0x40 SHL SUB DUP4 GT PUSH2 0x31F JUMPI PUSH1 0x20 DUP4 DUP2 DUP7 ADD SWAP6 ADD ADD GT PUSH2 0x31F JUMPI JUMP JUMPDEST SWAP2 SWAP1 DUP3 MLOAD SWAP3 DUP4 DUP3 MSTORE PUSH1 0x0 JUMPDEST DUP5 DUP2 LT PUSH2 0x2954 JUMPI POP POP DUP3 PUSH1 0x0 PUSH1 0x20 DUP1 SWAP5 SWAP6 DUP5 ADD ADD MSTORE PUSH1 0x1F DUP1 NOT SWAP2 ADD AND ADD ADD SWAP1 JUMP JUMPDEST PUSH1 0x20 DUP2 DUP4 ADD DUP2 ADD MLOAD DUP5 DUP4 ADD DUP3 ADD MSTORE ADD PUSH2 0x2933 JUMP JUMPDEST SWAP1 PUSH1 0x1 DUP3 DUP2 SHR SWAP3 AND DUP1 ISZERO PUSH2 0x2998 JUMPI JUMPDEST PUSH1 0x20 DUP4 LT EQ PUSH2 0x2982 JUMPI JUMP JUMPDEST PUSH4 0x4E487B71 PUSH1 0xE0 SHL PUSH1 0x0 MSTORE PUSH1 0x22 PUSH1 0x4 MSTORE PUSH1 0x24 PUSH1 0x0 REVERT JUMPDEST SWAP2 PUSH1 0x7F AND SWAP2 PUSH2 0x2977 JUMP JUMPDEST PUSH1 0x60 DUP2 ADD SWAP1 DUP2 LT PUSH1 0x1 PUSH1 0x1 PUSH1 0x40 SHL SUB DUP3 GT OR PUSH2 0x7C8 JUMPI PUSH1 0x40 MSTORE JUMP JUMPDEST PUSH2 0x120 DUP2 ADD SWAP1 DUP2 LT PUSH1 0x1 PUSH1 0x1 PUSH1 0x40 SHL SUB DUP3 GT OR PUSH2 0x7C8 JUMPI PUSH1 0x40 MSTORE JUMP JUMPDEST PUSH1 0xE0 DUP2 ADD SWAP1 DUP2 LT PUSH1 0x1 PUSH1 0x1 PUSH1 0x40 SHL SUB DUP3 GT OR PUSH2 0x7C8 JUMPI PUSH1 0x40 MSTORE JUMP JUMPDEST PUSH2 0x200 DUP2 ADD SWAP1 DUP2 LT PUSH1 0x1 PUSH1 0x1 PUSH1 0x40 SHL SUB DUP3 GT OR PUSH2 0x7C8 JUMPI PUSH1 0x40 MSTORE JUMP JUMPDEST SWAP1 PUSH1 0x1F DUP1 NOT SWAP2 ADD AND DUP2 ADD SWAP1 DUP2 LT PUSH1 0x1 PUSH1 0x1 PUSH1 0x40 SHL SUB DUP3 GT OR PUSH2 0x7C8 JUMPI PUSH1 0x40 MSTORE JUMP JUMPDEST SWAP1 PUSH1 0x40 MLOAD SWAP2 DUP3 PUSH1 0x0 DUP3 SLOAD SWAP3 PUSH2 0x2A45 DUP5 PUSH2 0x2968 JUMP JUMPDEST SWAP1 DUP2 DUP5 MSTORE PUSH1 0x1 SWAP5 DUP6 DUP2 AND SWAP1 DUP2 PUSH1 0x0 EQ PUSH2 0x2AB4 JUMPI POP PUSH1 0x1 EQ PUSH2 0x2A71 JUMPI JUMPDEST POP POP PUSH2 0x2A6F SWAP3 POP SUB DUP4 PUSH2 0x2A10 JUMP JUMPDEST JUMP JUMPDEST SWAP1 SWAP4 SWAP2 POP PUSH1 0x0 MSTORE PUSH1 0x20 SWAP1 DUP2 PUSH1 0x0 KECCAK256 SWAP4 PUSH1 0x0 SWAP2 JUMPDEST DUP2 DUP4 LT PUSH2 0x2A9C JUMPI POP POP PUSH2 0x2A6F SWAP4 POP DUP3 ADD ADD CODESIZE DUP1 PUSH2 0x2A61 JUMP JUMPDEST DUP6 SLOAD DUP9 DUP5 ADD DUP6 ADD MSTORE SWAP5 DUP6 ADD SWAP5 DUP8 SWAP5 POP SWAP2 DUP4 ADD SWAP2 PUSH2 0x2A84 JUMP JUMPDEST SWAP2 POP POP PUSH2 0x2A6F SWAP5 POP PUSH1 0x20 SWAP3 POP PUSH1 0xFF NOT AND DUP3 DUP5 ADD MSTORE ISZERO ISZERO PUSH1 0x5 SHL DUP3 ADD ADD CODESIZE DUP1 PUSH2 0x2A61 JUMP JUMPDEST PUSH1 0x1 SLOAD DUP2 LT ISZERO PUSH2 0x28A1 JUMPI PUSH1 0x1 PUSH1 0x0 MSTORE PUSH1 0x3 SHL PUSH32 0xB10E2D527612073B26EECDFD717E6A320CF44B4AFAC2B0732D9FCBE2B7FA0CF6 ADD SWAP1 PUSH1 0x0 SWAP1 JUMP JUMPDEST SWAP1 PUSH1 0x0 SWAP2 DUP3 SLOAD DUP2 LT ISZERO PUSH2 0x2B4B JUMPI PUSH1 0xF SWAP1 DUP4 DUP1 MSTORE MUL PUSH32 0x290DECD9548B62A8D60345A988386FC84BA6BC95484008F6362F93160EF3E563 ADD SWAP2 SWAP1 JUMP JUMPDEST PUSH4 0x4E487B71 PUSH1 0xE0 SHL DUP4 MSTORE PUSH1 0x32 PUSH1 0x4 MSTORE PUSH1 0x24 DUP4 REVERT JUMPDEST PUSH1 0x20 SWAP1 DUP2 PUSH1 0x40 DUP2 DUP4 ADD SWAP3 DUP3 DUP2 MSTORE DUP6 MLOAD DUP1 SWAP5 MSTORE ADD SWAP4 ADD SWAP2 PUSH1 0x0 JUMPDEST DUP3 DUP2 LT PUSH2 0x2B86 JUMPI POP POP POP POP SWAP1 JUMP JUMPDEST DUP4 MLOAD DUP6 MSTORE SWAP4 DUP2 ADD SWAP4 SWAP3 DUP2 ADD SWAP3 PUSH1 0x1 ADD PUSH2 0x2B78 JUMP JUMPDEST SWAP1 DUP2 MLOAD DUP2 MSTORE PUSH1 0x1 DUP1 PUSH1 0xA0 SHL SUB SWAP2 DUP3 PUSH1 0x20 DUP3 ADD MLOAD AND PUSH1 0x20 DUP4 ADD MSTORE PUSH2 0x2BF6 PUSH2 0x2BE4 PUSH2 0x2BD2 PUSH1 0x40 DUP5 ADD MLOAD PUSH2 0x200 DUP1 PUSH1 0x40 DUP9 ADD MSTORE DUP7 ADD SWAP1 PUSH2 0x2928 JUMP JUMPDEST PUSH1 0x60 DUP5 ADD MLOAD DUP6 DUP3 SUB PUSH1 0x60 DUP8 ADD MSTORE PUSH2 0x2928 JUMP JUMPDEST PUSH1 0x80 DUP4 ADD MLOAD DUP5 DUP3 SUB PUSH1 0x80 DUP7 ADD MSTORE PUSH2 0x2928 JUMP JUMPDEST SWAP3 PUSH1 0xA0 DUP3 ADD MLOAD PUSH1 0xA0 DUP5 ADD MSTORE PUSH1 0xC0 DUP3 ADD MLOAD PUSH1 0xC0 DUP5 ADD MSTORE PUSH1 0xE0 DUP3 ADD MLOAD PUSH1 0xE0 DUP5 ADD MSTORE PUSH2 0x100 DUP1 DUP4 ADD MLOAD SWAP1 DUP5 ADD MSTORE PUSH2 0x120 DUP1 DUP4 ADD MLOAD SWAP1 DUP5 ADD MSTORE PUSH2 0x140 DUP2 DUP2 DUP5 ADD MLOAD AND SWAP1 DUP5 ADD MSTORE PUSH2 0x160 DUP1 DUP4 ADD MLOAD SWAP1 DUP5 ADD MSTORE PUSH2 0x180 PUSH1 0xFF DUP2 DUP5 ADD MLOAD AND SWAP1 DUP5 ADD MSTORE PUSH2 0x1A0 SWAP1 DUP2 DUP4 ADD MLOAD AND SWAP1 DUP4 ADD MSTORE PUSH2 0x1C0 DUP1 DUP3 ADD MLOAD SWAP1 DUP4 ADD MSTORE PUSH2 0x1E0 DUP1 SWAP2 ADD MLOAD ISZERO ISZERO SWAP2 ADD MSTORE SWAP1 JUMP JUMPDEST PUSH1 0x40 SWAP1 PUSH1 0x3 NOT ADD SLT PUSH2 0x31F JUMPI PUSH1 0x4 CALLDATALOAD SWAP1 PUSH1 0x24 CALLDATALOAD SWAP1 JUMP JUMPDEST DUP1 SLOAD DUP3 LT ISZERO PUSH2 0x28A1 JUMPI PUSH1 0x0 MSTORE PUSH1 0x3 PUSH1 0x20 PUSH1 0x0 KECCAK256 SWAP2 MUL ADD SWAP1 PUSH1 0x0 SWAP1 JUMP JUMPDEST PUSH1 0x1 PUSH1 0x1 PUSH1 0x40 SHL SUB DUP2 GT PUSH2 0x7C8 JUMPI PUSH1 0x1F ADD PUSH1 0x1F NOT AND PUSH1 0x20 ADD SWAP1 JUMP JUMPDEST SWAP3 SWAP2 SWAP3 PUSH2 0x2CD1 DUP3 PUSH2 0x2CAA JUMP JUMPDEST SWAP2 PUSH2 0x2CDF PUSH1 0x40 MLOAD SWAP4 DUP5 PUSH2 0x2A10 JUMP JUMPDEST DUP3 SWAP5 DUP2 DUP5 MSTORE DUP2 DUP4 ADD GT PUSH2 0x31F JUMPI DUP3 DUP2 PUSH1 0x20 SWAP4 DUP5 PUSH1 0x0 SWAP7 ADD CALLDATACOPY ADD ADD MSTORE JUMP JUMPDEST SWAP1 PUSH1 0x1F DUP2 GT PUSH2 0x2D0A JUMPI POP POP POP JUMP JUMPDEST PUSH1 0x0 SWAP2 DUP3 MSTORE PUSH1 0x20 DUP3 KECCAK256 SWAP1 PUSH1 0x20 PUSH1 0x1F DUP6 ADD PUSH1 0x5 SHR DUP4 ADD SWAP5 LT PUSH2 0x2D46 JUMPI JUMPDEST PUSH1 0x1F ADD PUSH1 0x5 SHR ADD SWAP2 JUMPDEST DUP3 DUP2 LT PUSH2 0x2D3B JUMPI POP POP POP JUMP JUMPDEST DUP2 DUP2 SSTORE PUSH1 0x1 ADD PUSH2 0x2D2F JUMP JUMPDEST SWAP1 SWAP3 POP DUP3 SWAP1 PUSH2 0x2D26 JUMP JUMPDEST DUP1 SLOAD PUSH1 0x1 PUSH1 0x40 SHL DUP2 LT ISZERO PUSH2 0x7C8 JUMPI PUSH2 0x2D6D SWAP2 PUSH1 0x1 DUP3 ADD DUP2 SSTORE PUSH2 0x28B7 JUMP JUMPDEST DUP2 SWAP3 SWAP2 SLOAD SWAP1 PUSH1 0x3 SHL SWAP2 DUP3 SHL SWAP2 PUSH1 0x0 NOT SWAP1 SHL NOT AND OR SWAP1 SSTORE JUMP JUMPDEST SWAP1 DUP1 PUSH1 0x20 SWAP4 SWAP3 DUP2 DUP5 MSTORE DUP5 DUP5 ADD CALLDATACOPY PUSH1 0x0 DUP3 DUP3 ADD DUP5 ADD MSTORE PUSH1 0x1F ADD PUSH1 0x1F NOT AND ADD ADD SWAP1 JUMP JUMPDEST ISZERO PUSH2 0x2DAD JUMPI JUMP JUMPDEST PUSH1 0x40 MLOAD PUSH3 0x461BCD PUSH1 0xE5 SHL DUP2 MSTORE PUSH1 0x20 PUSH1 0x4 DUP3 ADD MSTORE PUSH1 0x11 PUSH1 0x24 DUP3 ADD MSTORE PUSH17 0x105D58DD1A5BDB881B9BDD08199BDD5B99 PUSH1 0x7A SHL PUSH1 0x44 DUP3 ADD MSTORE PUSH1 0x64 SWAP1 REVERT JUMPDEST SWAP2 SWAP1 DUP3 ADD DUP1 SWAP3 GT PUSH2 0x229A JUMPI JUMP JUMPDEST PUSH1 0x0 NOT DUP2 EQ PUSH2 0x229A JUMPI PUSH1 0x1 ADD SWAP1 JUMP JUMPDEST PUSH1 0x1 PUSH1 0x1 PUSH1 0xA0 SHL SUB AND PUSH1 0x0 SWAP1 DUP2 MSTORE PUSH1 0x4 PUSH1 0x20 MSTORE PUSH1 0x40 DUP2 KECCAK256 DUP1 SLOAD SWAP3 SWAP2 JUMPDEST DUP4 DUP2 LT PUSH2 0x2E2E JUMPI POP POP POP POP PUSH1 0x0 SWAP1 JUMP JUMPDEST DUP3 PUSH2 0x2E39 DUP3 DUP5 PUSH2 0x28B7 JUMP JUMPDEST SWAP1 SLOAD SWAP1 PUSH1 0x3 SHL SHR EQ PUSH2 0x2E53 JUMPI PUSH2 0x2E4E SWAP1 PUSH2 0x2DF3 JUMP JUMPDEST PUSH2 0x2E1E JUMP JUMPDEST POP POP POP POP PUSH1 0x1 SWAP1 JUMP JUMPDEST DUP2 DUP2 MUL SWAP3 SWAP2 DUP2 ISZERO SWAP2 DUP5 DIV EQ OR ISZERO PUSH2 0x229A JUMPI JUMP JUMPDEST SWAP2 SWAP1 DUP3 SUB SWAP2 DUP3 GT PUSH2 0x229A JUMPI JUMP JUMPDEST ISZERO PUSH2 0x2E83 JUMPI JUMP JUMPDEST PUSH1 0x40 MLOAD PUSH3 0x461BCD PUSH1 0xE5 SHL DUP2 MSTORE PUSH1 0x20 PUSH1 0x4 DUP3 ADD MSTORE PUSH1 0x11 PUSH1 0x24 DUP3 ADD MSTORE PUSH17 0x111A5CDC1D5D19481B9BDD08199BDD5B99 PUSH1 0x7A SHL PUSH1 0x44 DUP3 ADD MSTORE PUSH1 0x64 SWAP1 REVERT JUMPDEST PUSH1 0x40 MLOAD SWAP1 PUSH2 0x2EC9 DUP3 PUSH2 0x29F4 JUMP JUMPDEST DUP2 PUSH2 0x1E0 PUSH1 0x0 SWAP2 DUP3 DUP2 MSTORE DUP3 PUSH1 0x20 DUP3 ADD MSTORE PUSH1 0x60 PUSH1 0x40 DUP3 ADD MSTORE PUSH1 0x60 DUP1 DUP3 ADD MSTORE PUSH1 0x60 PUSH1 0x80 DUP3 ADD MSTORE DUP3 PUSH1 0xA0 DUP3 ADD MSTORE DUP3 PUSH1 0xC0 DUP3 ADD MSTORE DUP3 PUSH1 0xE0 DUP3 ADD MSTORE DUP3 PUSH2 0x100 DUP3 ADD MSTORE DUP3 PUSH2 0x120 DUP3 ADD MSTORE DUP3 PUSH2 0x140 DUP3 ADD MSTORE DUP3 PUSH2 0x160 DUP3 ADD MSTORE DUP3 PUSH2 0x180 DUP3 ADD MSTORE DUP3 PUSH2 0x1A0 DUP3 ADD MSTORE DUP3 PUSH2 0x1C0 DUP3 ADD MSTORE ADD MSTORE JUMP JUMPDEST SWAP1 PUSH1 0x40 MLOAD PUSH2 0x2F41 DUP2 PUSH2 0x29F4 JUMP JUMPDEST PUSH2 0x1E0 PUSH1 0xFF PUSH1 0xE DUP4 SWAP6 DUP1 SLOAD DUP6 MSTORE PUSH1 0x1 DUP1 PUSH1 0xA0 SHL SUB DUP1 PUSH1 0x1 DUP4 ADD SLOAD AND PUSH1 0x20 DUP8 ADD MSTORE PUSH2 0x2F6D PUSH1 0x2 DUP4 ADD PUSH2 0x2A31 JUMP JUMPDEST PUSH1 0x40 DUP8 ADD MSTORE PUSH2 0x2F7E PUSH1 0x3 DUP4 ADD PUSH2 0x2A31 JUMP JUMPDEST PUSH1 0x60 DUP8 ADD MSTORE PUSH2 0x2F8F PUSH1 0x4 DUP4 ADD PUSH2 0x2A31 JUMP JUMPDEST PUSH1 0x80 DUP8 ADD MSTORE PUSH1 0x5 DUP3 ADD SLOAD PUSH1 0xA0 DUP8 ADD MSTORE PUSH1 0x6 DUP3 ADD SLOAD PUSH1 0xC0 DUP8 ADD MSTORE PUSH1 0x7 DUP3 ADD SLOAD PUSH1 0xE0 DUP8 ADD MSTORE PUSH1 0x8 DUP3 ADD SLOAD PUSH2 0x100 DUP8 ADD MSTORE PUSH1 0x9 DUP3 ADD SLOAD PUSH2 0x120 DUP8 ADD MSTORE DUP1 PUSH1 0xA DUP4 ADD SLOAD AND PUSH2 0x140 DUP8 ADD MSTORE PUSH1 0xB DUP3 ADD SLOAD PUSH2 0x160 DUP8 ADD MSTORE PUSH1 0xC DUP3 ADD SLOAD DUP5 DUP2 AND PUSH2 0x180 DUP9 ADD MSTORE PUSH1 0x8 SHR AND PUSH2 0x1A0 DUP7 ADD MSTORE PUSH1 0xD DUP2 ADD SLOAD PUSH2 0x1C0 DUP7 ADD MSTORE ADD SLOAD AND ISZERO ISZERO SWAP2 ADD MSTORE JUMP JUMPDEST PUSH1 0x1 PUSH1 0x1 PUSH1 0x40 SHL SUB DUP2 GT PUSH2 0x7C8 JUMPI PUSH1 0x5 SHL PUSH1 0x20 ADD SWAP1 JUMP JUMPDEST DUP1 MLOAD DUP3 LT ISZERO PUSH2 0x28A1 JUMPI PUSH1 0x20 SWAP2 PUSH1 0x5 SHL ADD ADD SWAP1 JUMP JUMPDEST SWAP2 SWAP1 PUSH1 0x0 SLOAD SWAP1 DUP2 DUP5 LT DUP1 ISZERO SWAP1 PUSH2 0x311D JUMPI JUMPDEST PUSH2 0x3115 JUMPI DUP2 PUSH2 0x3058 DUP3 DUP7 PUSH2 0x2DE6 JUMP JUMPDEST GT ISZERO PUSH2 0x3105 JUMPI POP JUMPDEST PUSH2 0x306A DUP4 DUP3 PUSH2 0x2E6F JUMP JUMPDEST SWAP3 PUSH2 0x3074 DUP5 PUSH2 0x300D JUMP JUMPDEST SWAP4 PUSH2 0x3082 PUSH1 0x40 MLOAD SWAP6 DUP7 PUSH2 0x2A10 JUMP JUMPDEST DUP1 DUP6 MSTORE PUSH2 0x3091 PUSH1 0x1F NOT SWAP2 PUSH2 0x300D JUMP JUMPDEST ADD PUSH1 0x0 JUMPDEST DUP2 DUP2 LT PUSH2 0x30EE JUMPI POP POP DUP4 DUP2 JUMPDEST DUP4 DUP2 LT PUSH2 0x30AE JUMPI POP POP POP POP JUMP JUMPDEST DUP1 PUSH2 0x30E3 PUSH2 0x30BE PUSH2 0x30E9 SWAP4 PUSH2 0x2B11 JUMP JUMPDEST POP PUSH2 0x30D2 PUSH2 0x30CC DUP8 DUP6 PUSH2 0x2E6F JUMP JUMPDEST SWAP2 PUSH2 0x2F34 JUMP JUMPDEST PUSH2 0x30DC DUP3 DUP8 PUSH2 0x3024 JUMP JUMPDEST MSTORE DUP5 PUSH2 0x3024 JUMP JUMPDEST POP PUSH2 0x2DF3 JUMP JUMPDEST PUSH2 0x30A1 JUMP JUMPDEST PUSH1 0x20 SWAP1 PUSH2 0x30F9 PUSH2 0x2EBC JUMP JUMPDEST DUP3 DUP3 DUP10 ADD ADD MSTORE ADD PUSH2 0x3095 JUMP JUMPDEST PUSH2 0x3110 SWAP2 POP DUP4 PUSH2 0x2DE6 JUMP JUMPDEST PUSH2 0x3060 JUMP JUMPDEST POP PUSH1 0x60 SWAP3 POP POP JUMP JUMPDEST POP DUP1 ISZERO PUSH2 0x3049 JUMP JUMPDEST ISZERO PUSH2 0x312C JUMPI JUMP JUMPDEST PUSH1 0x40 MLOAD PUSH3 0x461BCD PUSH1 0xE5 SHL DUP2 MSTORE PUSH1 0x20 PUSH1 0x4 DUP3 ADD MSTORE PUSH1 0x9 PUSH1 0x24 DUP3 ADD MSTORE PUSH9 0x2737BA1037BBB732B9 PUSH1 0xB9 SHL PUSH1 0x44 DUP3 ADD MSTORE PUSH1 0x64 SWAP1 REVERT JUMPDEST PUSH1 0x0 SWAP2 DUP3 SWAP2 DUP3 SWAP2 DUP3 SWAP2 PUSH1 0x1 PUSH1 0x1 PUSH1 0xA0 SHL SUB AND GAS CALL RETURNDATASIZE ISZERO PUSH2 0x31D8 JUMPI RETURNDATASIZE PUSH2 0x3181 DUP2 PUSH2 0x2CAA JUMP JUMPDEST SWAP1 PUSH2 0x318F PUSH1 0x40 MLOAD SWAP3 DUP4 PUSH2 0x2A10 JUMP JUMPDEST DUP2 MSTORE PUSH1 0x0 PUSH1 0x20 RETURNDATASIZE SWAP3 ADD RETURNDATACOPY JUMPDEST ISZERO PUSH2 0x31A1 JUMPI JUMP JUMPDEST PUSH1 0x40 MLOAD PUSH3 0x461BCD PUSH1 0xE5 SHL DUP2 MSTORE PUSH1 0x20 PUSH1 0x4 DUP3 ADD MSTORE PUSH1 0xF PUSH1 0x24 DUP3 ADD MSTORE PUSH15 0x151C985B9CD9995C8819985A5B1959 PUSH1 0x8A SHL PUSH1 0x44 DUP3 ADD MSTORE PUSH1 0x64 SWAP1 REVERT JUMPDEST PUSH2 0x319A JUMP INVALID LOG2 PUSH5 0x6970667358 0x22 SLT KECCAK256 CALLCODE DUP8 CALLDATALOAD PUSH17 0xDDD68E52E0435A2E35D9EA91A06036AF7E PUSH14 0x5315D930E688D8589A7964736F6C PUSH4 0x43000814 STOP CALLER "},"methodIdentifiers":{"arbitratorAddresses(uint256)":"0899172c","arbitrators(address)":"51d0ea37","auctions(uint256)":"571a26a0","bidderAuctions(address,uint256)":"1cb8dd1c","bids(uint256,uint256)":"7b3c4baa","confirmReceipt(uint256)":"843cba13","createAuction(string,string,string,uint256,uint256,uint256,uint256,address)":"8c735939","deregisterArbitrator()":"0595e309","disputes(uint256)":"564a565d","endAuction(uint256)":"b9a2de3a","getArbitrator(address)":"388b0c02","getArbitratorCount()":"1923c96f","getArbitratorList()":"19dee18b","getAuction(uint256)":"78bd7935","getAuctionCount()":"c44e6640","getAuctions(uint256,uint256)":"ceb6a22f","getBidderAuctions(address)":"62910b59","getBids(uint256)":"131d9a27","getDispute(uint256)":"e3a96cbd","getDisputeCount()":"10987b77","getPendingReturn(uint256,address)":"d02ef6f9","getSellerAuctions(address)":"69ce5d87","minArbitratorStake()":"82c7316e","openDispute(uint256,string)":"36f691c4","owner()":"8da5cb5b","pendingReturns(uint256,address)":"8ddac1ef","placeBid(uint256)":"9979ef45","platformFeeBps()":"22dcd13e","registerArbitrator(string,uint256)":"bbb54d89","resolveDispute(uint256,uint8,string)":"c316939c","sellerAuctions(address,uint256)":"5036b0bc","setMinArbitratorStake(uint256)":"08f52894","setPlatformFee(uint256)":"12e8e2c3","withdrawRefund(uint256)":"9d153495"}}}}}